{
  "contractName": "VoteToken",
  "abi": [
    {
      "inputs": [
        {
          "internalType": "uint256",
          "name": "initialSupply",
          "type": "uint256"
        },
        {
          "internalType": "address",
          "name": "demandFactoryAddress",
          "type": "address"
        }
      ],
      "stateMutability": "nonpayable",
      "type": "constructor"
    },
    {
      "anonymous": false,
      "inputs": [
        {
          "indexed": true,
          "internalType": "address",
          "name": "owner",
          "type": "address"
        },
        {
          "indexed": true,
          "internalType": "address",
          "name": "spender",
          "type": "address"
        },
        {
          "indexed": false,
          "internalType": "uint256",
          "name": "value",
          "type": "uint256"
        }
      ],
      "name": "Approval",
      "type": "event"
    },
    {
      "anonymous": false,
      "inputs": [
        {
          "indexed": true,
          "internalType": "address",
          "name": "from",
          "type": "address"
        },
        {
          "indexed": true,
          "internalType": "address",
          "name": "to",
          "type": "address"
        },
        {
          "indexed": false,
          "internalType": "uint256",
          "name": "value",
          "type": "uint256"
        }
      ],
      "name": "Transfer",
      "type": "event"
    },
    {
      "anonymous": false,
      "inputs": [
        {
          "indexed": false,
          "internalType": "uint256",
          "name": "_id",
          "type": "uint256"
        },
        {
          "indexed": false,
          "internalType": "address",
          "name": "sender",
          "type": "address"
        },
        {
          "indexed": false,
          "internalType": "uint256",
          "name": "voteTime",
          "type": "uint256"
        }
      ],
      "name": "addAgainst",
      "type": "event"
    },
    {
      "anonymous": false,
      "inputs": [
        {
          "indexed": false,
          "internalType": "uint256",
          "name": "_id",
          "type": "uint256"
        },
        {
          "indexed": false,
          "internalType": "address",
          "name": "sender",
          "type": "address"
        },
        {
          "indexed": false,
          "internalType": "uint256",
          "name": "voteTime",
          "type": "uint256"
        }
      ],
      "name": "addAggree",
      "type": "event"
    },
    {
      "anonymous": false,
      "inputs": [
        {
          "indexed": false,
          "internalType": "uint256",
          "name": "_id",
          "type": "uint256"
        },
        {
          "indexed": false,
          "internalType": "uint256",
          "name": "voteTime",
          "type": "uint256"
        }
      ],
      "name": "voteNotThrough",
      "type": "event"
    },
    {
      "anonymous": false,
      "inputs": [
        {
          "indexed": false,
          "internalType": "uint256",
          "name": "_id",
          "type": "uint256"
        },
        {
          "indexed": false,
          "internalType": "uint256",
          "name": "voteTime",
          "type": "uint256"
        }
      ],
      "name": "voteThrough",
      "type": "event"
    },
    {
      "inputs": [
        {
          "internalType": "address",
          "name": "owner",
          "type": "address"
        },
        {
          "internalType": "address",
          "name": "spender",
          "type": "address"
        }
      ],
      "name": "allowance",
      "outputs": [
        {
          "internalType": "uint256",
          "name": "",
          "type": "uint256"
        }
      ],
      "stateMutability": "view",
      "type": "function"
    },
    {
      "inputs": [
        {
          "internalType": "address",
          "name": "spender",
          "type": "address"
        },
        {
          "internalType": "uint256",
          "name": "amount",
          "type": "uint256"
        }
      ],
      "name": "approve",
      "outputs": [
        {
          "internalType": "bool",
          "name": "",
          "type": "bool"
        }
      ],
      "stateMutability": "nonpayable",
      "type": "function"
    },
    {
      "inputs": [
        {
          "internalType": "address",
          "name": "account",
          "type": "address"
        }
      ],
      "name": "balanceOf",
      "outputs": [
        {
          "internalType": "uint256",
          "name": "",
          "type": "uint256"
        }
      ],
      "stateMutability": "view",
      "type": "function"
    },
    {
      "inputs": [],
      "name": "decimals",
      "outputs": [
        {
          "internalType": "uint8",
          "name": "",
          "type": "uint8"
        }
      ],
      "stateMutability": "view",
      "type": "function"
    },
    {
      "inputs": [
        {
          "internalType": "address",
          "name": "spender",
          "type": "address"
        },
        {
          "internalType": "uint256",
          "name": "subtractedValue",
          "type": "uint256"
        }
      ],
      "name": "decreaseAllowance",
      "outputs": [
        {
          "internalType": "bool",
          "name": "",
          "type": "bool"
        }
      ],
      "stateMutability": "nonpayable",
      "type": "function"
    },
    {
      "inputs": [
        {
          "internalType": "address",
          "name": "spender",
          "type": "address"
        },
        {
          "internalType": "uint256",
          "name": "addedValue",
          "type": "uint256"
        }
      ],
      "name": "increaseAllowance",
      "outputs": [
        {
          "internalType": "bool",
          "name": "",
          "type": "bool"
        }
      ],
      "stateMutability": "nonpayable",
      "type": "function"
    },
    {
      "inputs": [
        {
          "internalType": "address",
          "name": "",
          "type": "address"
        },
        {
          "internalType": "uint256",
          "name": "",
          "type": "uint256"
        }
      ],
      "name": "is_voted",
      "outputs": [
        {
          "internalType": "bool",
          "name": "",
          "type": "bool"
        }
      ],
      "stateMutability": "view",
      "type": "function"
    },
    {
      "inputs": [],
      "name": "name",
      "outputs": [
        {
          "internalType": "string",
          "name": "",
          "type": "string"
        }
      ],
      "stateMutability": "view",
      "type": "function"
    },
    {
      "inputs": [],
      "name": "symbol",
      "outputs": [
        {
          "internalType": "string",
          "name": "",
          "type": "string"
        }
      ],
      "stateMutability": "view",
      "type": "function"
    },
    {
      "inputs": [],
      "name": "totalSupply",
      "outputs": [
        {
          "internalType": "uint256",
          "name": "",
          "type": "uint256"
        }
      ],
      "stateMutability": "view",
      "type": "function"
    },
    {
      "inputs": [
        {
          "internalType": "address",
          "name": "recipient",
          "type": "address"
        },
        {
          "internalType": "uint256",
          "name": "amount",
          "type": "uint256"
        }
      ],
      "name": "transfer",
      "outputs": [
        {
          "internalType": "bool",
          "name": "",
          "type": "bool"
        }
      ],
      "stateMutability": "nonpayable",
      "type": "function"
    },
    {
      "inputs": [
        {
          "internalType": "address",
          "name": "sender",
          "type": "address"
        },
        {
          "internalType": "address",
          "name": "recipient",
          "type": "address"
        },
        {
          "internalType": "uint256",
          "name": "amount",
          "type": "uint256"
        }
      ],
      "name": "transferFrom",
      "outputs": [
        {
          "internalType": "bool",
          "name": "",
          "type": "bool"
        }
      ],
      "stateMutability": "nonpayable",
      "type": "function"
    },
    {
      "inputs": [
        {
          "internalType": "uint256",
          "name": "",
          "type": "uint256"
        }
      ],
      "name": "votes_against",
      "outputs": [
        {
          "internalType": "uint256",
          "name": "voteNum",
          "type": "uint256"
        }
      ],
      "stateMutability": "view",
      "type": "function"
    },
    {
      "inputs": [
        {
          "internalType": "uint256",
          "name": "",
          "type": "uint256"
        }
      ],
      "name": "votes_aggree",
      "outputs": [
        {
          "internalType": "uint256",
          "name": "voteNum",
          "type": "uint256"
        }
      ],
      "stateMutability": "view",
      "type": "function"
    },
    {
      "inputs": [
        {
          "internalType": "uint256",
          "name": "_id",
          "type": "uint256"
        }
      ],
      "name": "getVoteStatus",
      "outputs": [
        {
          "internalType": "uint8",
          "name": "status",
          "type": "uint8"
        }
      ],
      "stateMutability": "view",
      "type": "function"
    },
    {
      "inputs": [
        {
          "internalType": "uint256",
          "name": "_id",
          "type": "uint256"
        }
      ],
      "name": "aggree",
      "outputs": [],
      "stateMutability": "nonpayable",
      "type": "function"
    },
    {
      "inputs": [
        {
          "internalType": "uint256",
          "name": "_id",
          "type": "uint256"
        }
      ],
      "name": "against",
      "outputs": [],
      "stateMutability": "nonpayable",
      "type": "function"
    },
    {
      "inputs": [
        {
          "internalType": "uint256",
          "name": "_id",
          "type": "uint256"
        }
      ],
      "name": "getVotesCount",
      "outputs": [
        {
          "internalType": "uint256",
          "name": "aggreeNum",
          "type": "uint256"
        },
        {
          "internalType": "uint256",
          "name": "againstNum",
          "type": "uint256"
        }
      ],
      "stateMutability": "view",
      "type": "function"
    },
    {
      "inputs": [
        {
          "internalType": "uint256",
          "name": "_id",
          "type": "uint256"
        }
      ],
      "name": "getAllVoters",
      "outputs": [
        {
          "internalType": "address[]",
          "name": "aggree_voters",
          "type": "address[]"
        },
        {
          "internalType": "address[]",
          "name": "against_voters",
          "type": "address[]"
        }
      ],
      "stateMutability": "view",
      "type": "function"
    }
  ],
  "bytecode": "0x60806040526000600960006101000a81548173ffffffffffffffffffffffffffffffffffffffff021916908373ffffffffffffffffffffffffffffffffffffffff1602179055503480156200005357600080fd5b50604051620029db380380620029db833981810160405260408110156200007957600080fd5b8101908080519060200190929190805190602001909291905050506040518060400160405280600981526020017f566f7465546f6b656e00000000000000000000000000000000000000000000008152506040518060400160405280600481526020017f566f74650000000000000000000000000000000000000000000000000000000081525081600390805190602001906200011892919062000458565b5080600490805190602001906200013192919062000458565b506012600560006101000a81548160ff021916908360ff1602179055505050620001623383620001ec60201b60201c565b33600960006101000a81548173ffffffffffffffffffffffffffffffffffffffff021916908373ffffffffffffffffffffffffffffffffffffffff16021790555080600a60006101000a81548173ffffffffffffffffffffffffffffffffffffffff021916908373ffffffffffffffffffffffffffffffffffffffff1602179055505050620004fe565b600073ffffffffffffffffffffffffffffffffffffffff168273ffffffffffffffffffffffffffffffffffffffff16141562000290576040517f08c379a000000000000000000000000000000000000000000000000000000000815260040180806020018281038252601f8152602001807f45524332303a206d696e7420746f20746865207a65726f20616464726573730081525060200191505060405180910390fd5b620002a460008383620003ca60201b60201c565b620002c081600254620003cf60201b62001b051790919060201c565b6002819055506200031e816000808573ffffffffffffffffffffffffffffffffffffffff1673ffffffffffffffffffffffffffffffffffffffff16815260200190815260200160002054620003cf60201b62001b051790919060201c565b6000808473ffffffffffffffffffffffffffffffffffffffff1673ffffffffffffffffffffffffffffffffffffffff168152602001908152602001600020819055508173ffffffffffffffffffffffffffffffffffffffff16600073ffffffffffffffffffffffffffffffffffffffff167fddf252ad1be2c89b69c2b068fc378daa952ba7f163c4a11628f55a4df523b3ef836040518082815260200191505060405180910390a35050565b505050565b6000808284019050838110156200044e576040517f08c379a000000000000000000000000000000000000000000000000000000000815260040180806020018281038252601b8152602001807f536166654d6174683a206164646974696f6e206f766572666c6f77000000000081525060200191505060405180910390fd5b8091505092915050565b828054600181600116156101000203166002900490600052602060002090601f016020900481019282601f106200049b57805160ff1916838001178555620004cc565b82800160010185558215620004cc579182015b82811115620004cb578251825591602001919060010190620004ae565b5b509050620004db9190620004df565b5090565b5b80821115620004fa576000816000905550600101620004e0565b5090565b6124cd806200050e6000396000f3fe608060405234801561001057600080fd5b50600436106101215760003560e01c806339509351116100ad578063a457c2d711610071578063a457c2d71461057d578063a9059cbb146105e1578063bff3375e14610645578063dd62ed3e14610710578063eace876e1461078857610121565b806339509351146103ba578063505308781461041e5780636de66cf71461046057806370a08231146104a257806395d89b41146104fa57610121565b80631937c261116100f45780631937c261146102705780631fc218e1146102b95780632390aa01146102e757806323b872dd14610315578063313ce5671461039957610121565b80630519bb831461012657806306fdde031461016b578063095ea7b3146101ee57806318160ddd14610252575b600080fd5b6101526004803603602081101561013c57600080fd5b81019080803590602001909291905050506107ec565b604051808260ff16815260200191505060405180910390f35b610173610bd7565b6040518080602001828103825283818151815260200191508051906020019080838360005b838110156101b3578082015181840152602081019050610198565b50505050905090810190601f1680156101e05780820380516001836020036101000a031916815260200191505b509250505060405180910390f35b61023a6004803603604081101561020457600080fd5b81019080803573ffffffffffffffffffffffffffffffffffffffff16906020019092919080359060200190929190505050610c79565b60405180821515815260200191505060405180910390f35b61025a610c97565b6040518082815260200191505060405180910390f35b61029c6004803603602081101561028657600080fd5b8101908080359060200190929190505050610ca1565b604051808381526020018281526020019250505060405180910390f35b6102e5600480360360208110156102cf57600080fd5b8101908080359060200190929190505050610cdb565b005b610313600480360360208110156102fd57600080fd5b810190808035906020019092919050505061111a565b005b6103816004803603606081101561032b57600080fd5b81019080803573ffffffffffffffffffffffffffffffffffffffff169060200190929190803573ffffffffffffffffffffffffffffffffffffffff16906020019092919080359060200190929190505050611559565b60405180821515815260200191505060405180910390f35b6103a1611632565b604051808260ff16815260200191505060405180910390f35b610406600480360360408110156103d057600080fd5b81019080803573ffffffffffffffffffffffffffffffffffffffff16906020019092919080359060200190929190505050611649565b60405180821515815260200191505060405180910390f35b61044a6004803603602081101561043457600080fd5b81019080803590602001909291905050506116fc565b6040518082815260200191505060405180910390f35b61048c6004803603602081101561047657600080fd5b810190808035906020019092919050505061171a565b6040518082815260200191505060405180910390f35b6104e4600480360360208110156104b857600080fd5b81019080803573ffffffffffffffffffffffffffffffffffffffff169060200190929190505050611738565b6040518082815260200191505060405180910390f35b610502611780565b6040518080602001828103825283818151815260200191508051906020019080838360005b83811015610542578082015181840152602081019050610527565b50505050905090810190601f16801561056f5780820380516001836020036101000a031916815260200191505b509250505060405180910390f35b6105c96004803603604081101561059357600080fd5b81019080803573ffffffffffffffffffffffffffffffffffffffff16906020019092919080359060200190929190505050611822565b60405180821515815260200191505060405180910390f35b61062d600480360360408110156105f757600080fd5b81019080803573ffffffffffffffffffffffffffffffffffffffff169060200190929190803590602001909291905050506118ef565b60405180821515815260200191505060405180910390f35b6106716004803603602081101561065b57600080fd5b810190808035906020019092919050505061190d565b604051808060200180602001838103835285818151815260200191508051906020019060200280838360005b838110156106b857808201518184015260208101905061069d565b50505050905001838103825284818151815260200191508051906020019060200280838360005b838110156106fa5780820151818401526020810190506106df565b5050505090500194505050505060405180910390f35b6107726004803603604081101561072657600080fd5b81019080803573ffffffffffffffffffffffffffffffffffffffff169060200190929190803573ffffffffffffffffffffffffffffffffffffffff169060200190929190505050611a4f565b6040518082815260200191505060405180910390f35b6107d46004803603604081101561079e57600080fd5b81019080803573ffffffffffffffffffffffffffffffffffffffff16906020019092919080359060200190929190505050611ad6565b60405180821515815260200191505060405180910390f35b600080606060006060806000600a60009054906101000a900473ffffffffffffffffffffffffffffffffffffffff1673ffffffffffffffffffffffffffffffffffffffff1663f62de828896040518263ffffffff1660e01b81526004018082815260200191505060006040518083038186803b15801561086b57600080fd5b505afa15801561087f573d6000803e3d6000fd5b505050506040513d6000823e3d601f19601f8201168201806040525060c08110156108a957600080fd5b8101908080519060200190929190805160405193929190846401000000008211156108d357600080fd5b838201915060208201858111156108e957600080fd5b825186600182028301116401000000008211171561090657600080fd5b8083526020830192505050908051906020019080838360005b8381101561093a57808201518184015260208101905061091f565b50505050905090810190601f1680156109675780820380516001836020036101000a031916815260200191505b50604052602001805190602001909291908051604051939291908464010000000082111561099457600080fd5b838201915060208201858111156109aa57600080fd5b82518660018202830111640100000000821117156109c757600080fd5b8083526020830192505050908051906020019080838360005b838110156109fb5780820151818401526020810190506109e0565b50505050905090810190601f168015610a285780820380516001836020036101000a031916815260200191505b5060405260200180516040519392919084640100000000821115610a4b57600080fd5b83820191506020820185811115610a6157600080fd5b8251866001820283011164010000000082111715610a7e57600080fd5b8083526020830192505050908051906020019080838360005b83811015610ab2578082015181840152602081019050610a97565b50505050905090810190601f168015610adf5780820380516001836020036101000a031916815260200191505b5060405260200180519060200190929190505050809650819750829850839950849a50859b5050505050505060006002905060006002905060008314158015610b29575060028314155b15610b3e578298505050505050505050610bd2565b8160ff16600660008c815260200190815260200160002060000154108015610b7e57508060ff16600760008c815260200190815260200160002060000154105b15610b9457600298505050505050505050610bd2565b8160ff16600660008c81526020019081526020016000206000015410610bc557600198505050505050505050610bd2565b6004985050505050505050505b919050565b606060038054600181600116156101000203166002900480601f016020809104026020016040519081016040528092919081815260200182805460018160011615610100020316600290048015610c6f5780601f10610c4457610100808354040283529160200191610c6f565b820191906000526020600020905b815481529060010190602001808311610c5257829003601f168201915b5050505050905090565b6000610c8d610c86611b8d565b8484611b95565b6001905092915050565b6000600254905090565b6000806006600084815260200190815260200160002060000154915060076000848152602001908152602001600020600001549050915091565b6000610ce6826107ec565b60ff161480610d0057506002610cfb826107ec565b60ff16145b610d72576040517f08c379a000000000000000000000000000000000000000000000000000000000815260040180806020018281038252600b8152602001807f766f746520636c6f73656400000000000000000000000000000000000000000081525060200191505060405180910390fd5b60001515600860003373ffffffffffffffffffffffffffffffffffffffff1673ffffffffffffffffffffffffffffffffffffffff168152602001908152602001600020600083815260200190815260200160002060009054906101000a900460ff16151514610e49576040517f08c379a00000000000000000000000000000000000000000000000000000000081526004018080602001828103825260158152602001807f596f7527766520616c726561647920766f74656421000000000000000000000081525060200191505060405180910390fd5b6001610e5433611738565b1015610ec8576040517f08c379a000000000000000000000000000000000000000000000000000000000815260040180806020018281038252601d8152602001807f596f7520646f6e2774206861766520656e6f75676820746f6b656e732100000081525060200191505060405180910390fd5b610ed3336001611d8c565b6001600860003373ffffffffffffffffffffffffffffffffffffffff1673ffffffffffffffffffffffffffffffffffffffff168152602001908152602001600020600083815260200190815260200160002060006101000a81548160ff02191690831515021790555060066000828152602001908152602001600020600101339080600181540180825580915050600190039060005260206000200160009091909190916101000a81548173ffffffffffffffffffffffffffffffffffffffff021916908373ffffffffffffffffffffffffffffffffffffffff16021790555060066000828152602001908152602001600020600001600081548092919060010191905055507fc12c0272d1faa3e97a666ae12bdfc0799beb0f905d43b850dce4a0cd2cef09ac813342604051808481526020018373ffffffffffffffffffffffffffffffffffffffff168152602001828152602001935050505060405180910390a16001611041826107ec565b60ff16141561111757600a60009054906101000a900473ffffffffffffffffffffffffffffffffffffffff1673ffffffffffffffffffffffffffffffffffffffff166382ab890a826040518263ffffffff1660e01b815260040180828152602001915050600060405180830381600087803b1580156110bf57600080fd5b505af11580156110d3573d6000803e3d6000fd5b505050507f2ac81d7a96ca92c824dd6e8ecfd8484fb4c0515d4c6ae4f21711f687c89bb1bc8142604051808381526020018281526020019250505060405180910390a15b50565b6000611125826107ec565b60ff16148061113f5750600261113a826107ec565b60ff16145b6111b1576040517f08c379a000000000000000000000000000000000000000000000000000000000815260040180806020018281038252600b8152602001807f766f746520636c6f73656400000000000000000000000000000000000000000081525060200191505060405180910390fd5b60001515600860003373ffffffffffffffffffffffffffffffffffffffff1673ffffffffffffffffffffffffffffffffffffffff168152602001908152602001600020600083815260200190815260200160002060009054906101000a900460ff16151514611288576040517f08c379a00000000000000000000000000000000000000000000000000000000081526004018080602001828103825260158152602001807f596f7527766520616c726561647920766f74656421000000000000000000000081525060200191505060405180910390fd5b600161129333611738565b1015611307576040517f08c379a000000000000000000000000000000000000000000000000000000000815260040180806020018281038252601d8152602001807f596f7520646f6e2774206861766520656e6f75676820746f6b656e732100000081525060200191505060405180910390fd5b611312336001611d8c565b6001600860003373ffffffffffffffffffffffffffffffffffffffff1673ffffffffffffffffffffffffffffffffffffffff168152602001908152602001600020600083815260200190815260200160002060006101000a81548160ff02191690831515021790555060076000828152602001908152602001600020600101339080600181540180825580915050600190039060005260206000200160009091909190916101000a81548173ffffffffffffffffffffffffffffffffffffffff021916908373ffffffffffffffffffffffffffffffffffffffff16021790555060076000828152602001908152602001600020600001600081548092919060010191905055507f96ce7cbbde675ddb435b3e4b185613513eca190c76a819204ae2266d1b008f52813342604051808481526020018373ffffffffffffffffffffffffffffffffffffffff168152602001828152602001935050505060405180910390a16004611480826107ec565b60ff16141561155657600a60009054906101000a900473ffffffffffffffffffffffffffffffffffffffff1673ffffffffffffffffffffffffffffffffffffffff1663f2e5f682826040518263ffffffff1660e01b815260040180828152602001915050600060405180830381600087803b1580156114fe57600080fd5b505af1158015611512573d6000803e3d6000fd5b505050507f58fdc218b35bb4353ddf17a1c84929e67b9be2b352e584e2d92a7fac11678cf38142604051808381526020018281526020019250505060405180910390a15b50565b6000611566848484611f50565b61162784611572611b8d565b611622856040518060600160405280602881526020016123e160289139600160008b73ffffffffffffffffffffffffffffffffffffffff1673ffffffffffffffffffffffffffffffffffffffff16815260200190815260200160002060006115d8611b8d565b73ffffffffffffffffffffffffffffffffffffffff1673ffffffffffffffffffffffffffffffffffffffff168152602001908152602001600020546122119092919063ffffffff16565b611b95565b600190509392505050565b6000600560009054906101000a900460ff16905090565b60006116f2611656611b8d565b846116ed8560016000611667611b8d565b73ffffffffffffffffffffffffffffffffffffffff1673ffffffffffffffffffffffffffffffffffffffff16815260200190815260200160002060008973ffffffffffffffffffffffffffffffffffffffff1673ffffffffffffffffffffffffffffffffffffffff16815260200190815260200160002054611b0590919063ffffffff16565b611b95565b6001905092915050565b60066020528060005260406000206000915090508060000154905081565b60076020528060005260406000206000915090508060000154905081565b60008060008373ffffffffffffffffffffffffffffffffffffffff1673ffffffffffffffffffffffffffffffffffffffff168152602001908152602001600020549050919050565b606060048054600181600116156101000203166002900480601f0160208091040260200160405190810160405280929190818152602001828054600181600116156101000203166002900480156118185780601f106117ed57610100808354040283529160200191611818565b820191906000526020600020905b8154815290600101906020018083116117fb57829003601f168201915b5050505050905090565b60006118e561182f611b8d565b846118e0856040518060600160405280602581526020016124736025913960016000611859611b8d565b73ffffffffffffffffffffffffffffffffffffffff1673ffffffffffffffffffffffffffffffffffffffff16815260200190815260200160002060008a73ffffffffffffffffffffffffffffffffffffffff1673ffffffffffffffffffffffffffffffffffffffff168152602001908152602001600020546122119092919063ffffffff16565b611b95565b6001905092915050565b60006119036118fc611b8d565b8484611f50565b6001905092915050565b606080600660008481526020019081526020016000206001018054806020026020016040519081016040528092919081815260200182805480156119a657602002820191906000526020600020905b8160009054906101000a900473ffffffffffffffffffffffffffffffffffffffff1673ffffffffffffffffffffffffffffffffffffffff168152602001906001019080831161195c575b5050505050915060076000848152602001908152602001600020600101805480602002602001604051908101604052809291908181526020018280548015611a4357602002820191906000526020600020905b8160009054906101000a900473ffffffffffffffffffffffffffffffffffffffff1673ffffffffffffffffffffffffffffffffffffffff16815260200190600101908083116119f9575b50505050509050915091565b6000600160008473ffffffffffffffffffffffffffffffffffffffff1673ffffffffffffffffffffffffffffffffffffffff16815260200190815260200160002060008373ffffffffffffffffffffffffffffffffffffffff1673ffffffffffffffffffffffffffffffffffffffff16815260200190815260200160002054905092915050565b60086020528160005260406000206020528060005260406000206000915091509054906101000a900460ff1681565b600080828401905083811015611b83576040517f08c379a000000000000000000000000000000000000000000000000000000000815260040180806020018281038252601b8152602001807f536166654d6174683a206164646974696f6e206f766572666c6f77000000000081525060200191505060405180910390fd5b8091505092915050565b600033905090565b600073ffffffffffffffffffffffffffffffffffffffff168373ffffffffffffffffffffffffffffffffffffffff161415611c1b576040517f08c379a000000000000000000000000000000000000000000000000000000000815260040180806020018281038252602481526020018061244f6024913960400191505060405180910390fd5b600073ffffffffffffffffffffffffffffffffffffffff168273ffffffffffffffffffffffffffffffffffffffff161415611ca1576040517f08c379a00000000000000000000000000000000000000000000000000000000081526004018080602001828103825260228152602001806123996022913960400191505060405180910390fd5b80600160008573ffffffffffffffffffffffffffffffffffffffff1673ffffffffffffffffffffffffffffffffffffffff16815260200190815260200160002060008473ffffffffffffffffffffffffffffffffffffffff1673ffffffffffffffffffffffffffffffffffffffff168152602001908152602001600020819055508173ffffffffffffffffffffffffffffffffffffffff168373ffffffffffffffffffffffffffffffffffffffff167f8c5be1e5ebec7d5bd14f71427d1e84f3dd0314c0f7b2291e5b200ac8c7c3b925836040518082815260200191505060405180910390a3505050565b600073ffffffffffffffffffffffffffffffffffffffff168273ffffffffffffffffffffffffffffffffffffffff161415611e12576040517f08c379a00000000000000000000000000000000000000000000000000000000081526004018080602001828103825260218152602001806124096021913960400191505060405180910390fd5b611e1e826000836122cb565b611e8981604051806060016040528060228152602001612377602291396000808673ffffffffffffffffffffffffffffffffffffffff1673ffffffffffffffffffffffffffffffffffffffff168152602001908152602001600020546122119092919063ffffffff16565b6000808473ffffffffffffffffffffffffffffffffffffffff1673ffffffffffffffffffffffffffffffffffffffff16815260200190815260200160002081905550611ee0816002546122d090919063ffffffff16565b600281905550600073ffffffffffffffffffffffffffffffffffffffff168273ffffffffffffffffffffffffffffffffffffffff167fddf252ad1be2c89b69c2b068fc378daa952ba7f163c4a11628f55a4df523b3ef836040518082815260200191505060405180910390a35050565b600073ffffffffffffffffffffffffffffffffffffffff168373ffffffffffffffffffffffffffffffffffffffff161415611fd6576040517f08c379a000000000000000000000000000000000000000000000000000000000815260040180806020018281038252602581526020018061242a6025913960400191505060405180910390fd5b600073ffffffffffffffffffffffffffffffffffffffff168273ffffffffffffffffffffffffffffffffffffffff16141561205c576040517f08c379a00000000000000000000000000000000000000000000000000000000081526004018080602001828103825260238152602001806123546023913960400191505060405180910390fd5b6120678383836122cb565b6120d2816040518060600160405280602681526020016123bb602691396000808773ffffffffffffffffffffffffffffffffffffffff1673ffffffffffffffffffffffffffffffffffffffff168152602001908152602001600020546122119092919063ffffffff16565b6000808573ffffffffffffffffffffffffffffffffffffffff1673ffffffffffffffffffffffffffffffffffffffff16815260200190815260200160002081905550612165816000808573ffffffffffffffffffffffffffffffffffffffff1673ffffffffffffffffffffffffffffffffffffffff16815260200190815260200160002054611b0590919063ffffffff16565b6000808473ffffffffffffffffffffffffffffffffffffffff1673ffffffffffffffffffffffffffffffffffffffff168152602001908152602001600020819055508173ffffffffffffffffffffffffffffffffffffffff168373ffffffffffffffffffffffffffffffffffffffff167fddf252ad1be2c89b69c2b068fc378daa952ba7f163c4a11628f55a4df523b3ef836040518082815260200191505060405180910390a3505050565b60008383111582906122be576040517f08c379a00000000000000000000000000000000000000000000000000000000081526004018080602001828103825283818151815260200191508051906020019080838360005b83811015612283578082015181840152602081019050612268565b50505050905090810190601f1680156122b05780820380516001836020036101000a031916815260200191505b509250505060405180910390fd5b5082840390509392505050565b505050565b600082821115612348576040517f08c379a000000000000000000000000000000000000000000000000000000000815260040180806020018281038252601e8152602001807f536166654d6174683a207375627472616374696f6e206f766572666c6f77000081525060200191505060405180910390fd5b81830390509291505056fe45524332303a207472616e7366657220746f20746865207a65726f206164647265737345524332303a206275726e20616d6f756e7420657863656564732062616c616e636545524332303a20617070726f766520746f20746865207a65726f206164647265737345524332303a207472616e7366657220616d6f756e7420657863656564732062616c616e636545524332303a207472616e7366657220616d6f756e74206578636565647320616c6c6f77616e636545524332303a206275726e2066726f6d20746865207a65726f206164647265737345524332303a207472616e736665722066726f6d20746865207a65726f206164647265737345524332303a20617070726f76652066726f6d20746865207a65726f206164647265737345524332303a2064656372656173656420616c6c6f77616e63652062656c6f77207a65726fa264697066735822122076a62620d75f23c340d8c5cdc22eb29fd08ef2196a4503a192a52b8cd5cad86d64736f6c634300060c0033",
  "immutableReferences": {},
  "source": "// contracts/VoteToken.sol\r\n// SPDX-License-Identifier: MIT\r\npragma solidity ^0.6.0;\r\n\r\nimport \"@openzeppelin/contracts/token/ERC20/ERC20.sol\";\r\nimport \"./interfaces/DemandFactory.sol\";\r\n\r\ncontract VoteToken is ERC20 {\r\n\r\n  struct Demand {\r\n    uint id;          //\r\n    string username;  // or  \r\n    address sender;   //address\r\n    string content;   //\r\n    string contact;   //\r\n    uint status;      // 0: 1 2 3 4\r\n  }\r\n  struct voteInfo{\r\n    uint voteNum; //\r\n    address[] voters; //\r\n  }\r\n  mapping(uint => voteInfo) public votes_aggree; //\r\n  mapping(uint => voteInfo) public votes_against; //\r\n  mapping(address => mapping(uint => bool)) public is_voted; //\r\n  address receiver = address(0);\r\n  DemandFactory demandFactory;\r\n\r\n  event addAggree(uint _id,address sender,uint voteTime); //\r\n  event addAgainst(uint _id,address sender,uint voteTime); //\r\n  event voteThrough(uint _id,uint voteTime); //\r\n  event voteNotThrough(uint _id,uint voteTime); //\r\n\r\n  constructor(uint256 initialSupply,address demandFactoryAddress) public ERC20(\"VoteToken\", \"Vote\") {\r\n    _mint(msg.sender, initialSupply);\r\n    receiver=msg.sender;\r\n    demandFactory = DemandFactory(demandFactoryAddress);\r\n    \r\n  }\r\n\r\n  //  0: 1 2 3 4\r\n  function getVoteStatus(uint _id) public view returns(uint8 status) {\r\n    uint  id;          //\r\n    string memory username;  // or  \r\n    address  sender;   //address\r\n    string memory content;   //\r\n    string memory contact;   //\r\n    uint  getStatus;      // 0: 1 2 3 4\r\n    (id,username,sender,content,contact,getStatus) = demandFactory.demands(_id);\r\n    uint8 passBaseLineNum = 2;\r\n    uint8 failBaseLineNum = 2;\r\n\r\n    if(getStatus!=0 && getStatus!=2){\r\n      return uint8(getStatus);\r\n    }else{\r\n      //\r\n      if(\r\n        votes_aggree[_id].voteNum<passBaseLineNum &&\r\n        votes_against[_id].voteNum<failBaseLineNum\r\n      ){\r\n        return 2;\r\n      }else if(votes_aggree[_id].voteNum>=passBaseLineNum){\r\n        return 1;\r\n      }\r\n    }\r\n    \r\n    return 4;\r\n\r\n  }\r\n\r\n\r\n  // \r\n  function aggree(uint _id) public{\r\n    require(getVoteStatus(_id)==0 || getVoteStatus(_id)==2,\"vote closed\");\r\n    require(is_voted[msg.sender][_id]==false,\"You've already voted!\");\r\n    require(balanceOf(msg.sender)>=1,\"You don't have enough tokens!\");\r\n\r\n    _burn(msg.sender, 1);\r\n    //_mint(receiver, 1);\r\n    is_voted[msg.sender][_id]=true;\r\n    votes_aggree[_id].voters.push(msg.sender);\r\n    votes_aggree[_id].voteNum++;\r\n\r\n    emit addAggree(_id,msg.sender,now);\r\n    if(getVoteStatus(_id)==1){\r\n      demandFactory.update(_id);\r\n      emit voteThrough(_id,now);\r\n    }\r\n  }\r\n  \r\n  // \r\n  function against(uint _id) public{\r\n    require(getVoteStatus(_id)==0 || getVoteStatus(_id)==2,\"vote closed\");\r\n    require(is_voted[msg.sender][_id]==false,\"You've already voted!\");\r\n    require(balanceOf(msg.sender)>=1,\"You don't have enough tokens!\");\r\n\r\n    _burn(msg.sender, 1);\r\n    //_mint(receiver, 1);\r\n    is_voted[msg.sender][_id]=true;\r\n    votes_against[_id].voters.push(msg.sender);\r\n    votes_against[_id].voteNum++;\r\n\r\n    emit addAgainst(_id,msg.sender,now);\r\n    if(getVoteStatus(_id)==4){\r\n      demandFactory.failed(_id);\r\n      emit voteNotThrough(_id,now);\r\n    }\r\n  }\r\n\r\n  // \r\n  function getVotesCount(uint _id) public view returns(uint aggreeNum ,uint againstNum){\r\n    aggreeNum=votes_aggree[_id].voteNum;\r\n    againstNum=votes_against[_id].voteNum;\r\n  }\r\n\r\n  // \r\n  function getAllVoters(uint _id) public view returns(address[] memory aggree_voters,address[] memory against_voters){\r\n    aggree_voters=votes_aggree[_id].voters;\r\n    against_voters=votes_against[_id].voters;\r\n  }\r\n}",
  "sourcePath": "/f/BlockChain/Vote/contracts/VoteToken.sol",
  "compiler": {
    "name": "solc",
    "version": "0.6.12+commit.27d51765.Linux.g++"
  },
  "schemaVersion": "3.2.0",
  "updatedAt": "2021-03-29T12:41:02.016Z",
  "devdoc": {
    "kind": "dev",
    "methods": {
      "allowance(address,address)": {
        "details": "See {IERC20-allowance}."
      },
      "approve(address,uint256)": {
        "details": "See {IERC20-approve}. Requirements: - `spender` cannot be the zero address."
      },
      "balanceOf(address)": {
        "details": "See {IERC20-balanceOf}."
      },
      "decimals()": {
        "details": "Returns the number of decimals used to get its user representation. For example, if `decimals` equals `2`, a balance of `505` tokens should be displayed to a user as `5,05` (`505 / 10 ** 2`). Tokens usually opt for a value of 18, imitating the relationship between Ether and Wei. This is the value {ERC20} uses, unless {_setupDecimals} is called. NOTE: This information is only used for _display_ purposes: it in no way affects any of the arithmetic of the contract, including {IERC20-balanceOf} and {IERC20-transfer}."
      },
      "decreaseAllowance(address,uint256)": {
        "details": "Atomically decreases the allowance granted to `spender` by the caller. This is an alternative to {approve} that can be used as a mitigation for problems described in {IERC20-approve}. Emits an {Approval} event indicating the updated allowance. Requirements: - `spender` cannot be the zero address. - `spender` must have allowance for the caller of at least `subtractedValue`."
      },
      "increaseAllowance(address,uint256)": {
        "details": "Atomically increases the allowance granted to `spender` by the caller. This is an alternative to {approve} that can be used as a mitigation for problems described in {IERC20-approve}. Emits an {Approval} event indicating the updated allowance. Requirements: - `spender` cannot be the zero address."
      },
      "name()": {
        "details": "Returns the name of the token."
      },
      "symbol()": {
        "details": "Returns the symbol of the token, usually a shorter version of the name."
      },
      "totalSupply()": {
        "details": "See {IERC20-totalSupply}."
      },
      "transfer(address,uint256)": {
        "details": "See {IERC20-transfer}. Requirements: - `recipient` cannot be the zero address. - the caller must have a balance of at least `amount`."
      },
      "transferFrom(address,address,uint256)": {
        "details": "See {IERC20-transferFrom}. Emits an {Approval} event indicating the updated allowance. This is not required by the EIP. See the note at the beginning of {ERC20}. Requirements: - `sender` and `recipient` cannot be the zero address. - `sender` must have a balance of at least `amount`. - the caller must have allowance for ``sender``'s tokens of at least `amount`."
      }
    },
    "version": 1
  },
  "userdoc": {
    "kind": "user",
    "methods": {},
    "version": 1
  }
}