{
  "contractName": "VoteToken",
  "abi": [
    {
      "inputs": [
        {
          "internalType": "uint256",
          "name": "initialSupply",
          "type": "uint256"
        },
        {
          "internalType": "address",
          "name": "charityFactoryAddress",
          "type": "address"
        }
      ],
      "stateMutability": "nonpayable",
      "type": "constructor"
    },
    {
      "anonymous": false,
      "inputs": [
        {
          "indexed": true,
          "internalType": "address",
          "name": "owner",
          "type": "address"
        },
        {
          "indexed": true,
          "internalType": "address",
          "name": "spender",
          "type": "address"
        },
        {
          "indexed": false,
          "internalType": "uint256",
          "name": "value",
          "type": "uint256"
        }
      ],
      "name": "Approval",
      "type": "event"
    },
    {
      "anonymous": false,
      "inputs": [
        {
          "indexed": true,
          "internalType": "address",
          "name": "previousOwner",
          "type": "address"
        },
        {
          "indexed": true,
          "internalType": "address",
          "name": "newOwner",
          "type": "address"
        }
      ],
      "name": "OwnershipTransferred",
      "type": "event"
    },
    {
      "anonymous": false,
      "inputs": [
        {
          "indexed": true,
          "internalType": "address",
          "name": "from",
          "type": "address"
        },
        {
          "indexed": true,
          "internalType": "address",
          "name": "to",
          "type": "address"
        },
        {
          "indexed": false,
          "internalType": "uint256",
          "name": "value",
          "type": "uint256"
        }
      ],
      "name": "Transfer",
      "type": "event"
    },
    {
      "anonymous": false,
      "inputs": [
        {
          "indexed": false,
          "internalType": "uint256",
          "name": "_id",
          "type": "uint256"
        },
        {
          "indexed": false,
          "internalType": "address",
          "name": "sender",
          "type": "address"
        },
        {
          "indexed": false,
          "internalType": "uint256",
          "name": "voteTime",
          "type": "uint256"
        }
      ],
      "name": "addAgainst",
      "type": "event"
    },
    {
      "anonymous": false,
      "inputs": [
        {
          "indexed": false,
          "internalType": "uint256",
          "name": "_id",
          "type": "uint256"
        },
        {
          "indexed": false,
          "internalType": "address",
          "name": "sender",
          "type": "address"
        },
        {
          "indexed": false,
          "internalType": "uint256",
          "name": "voteTime",
          "type": "uint256"
        }
      ],
      "name": "addAgree",
      "type": "event"
    },
    {
      "anonymous": false,
      "inputs": [
        {
          "indexed": false,
          "internalType": "uint256",
          "name": "_id",
          "type": "uint256"
        },
        {
          "indexed": false,
          "internalType": "uint256",
          "name": "voteTime",
          "type": "uint256"
        }
      ],
      "name": "voteNotThrough",
      "type": "event"
    },
    {
      "anonymous": false,
      "inputs": [
        {
          "indexed": false,
          "internalType": "uint256",
          "name": "_id",
          "type": "uint256"
        },
        {
          "indexed": false,
          "internalType": "uint256",
          "name": "voteTime",
          "type": "uint256"
        }
      ],
      "name": "voteThrough",
      "type": "event"
    },
    {
      "inputs": [],
      "name": "admin",
      "outputs": [
        {
          "internalType": "address",
          "name": "",
          "type": "address"
        }
      ],
      "stateMutability": "view",
      "type": "function"
    },
    {
      "inputs": [
        {
          "internalType": "address",
          "name": "owner",
          "type": "address"
        },
        {
          "internalType": "address",
          "name": "spender",
          "type": "address"
        }
      ],
      "name": "allowance",
      "outputs": [
        {
          "internalType": "uint256",
          "name": "",
          "type": "uint256"
        }
      ],
      "stateMutability": "view",
      "type": "function"
    },
    {
      "inputs": [
        {
          "internalType": "address",
          "name": "spender",
          "type": "address"
        },
        {
          "internalType": "uint256",
          "name": "amount",
          "type": "uint256"
        }
      ],
      "name": "approve",
      "outputs": [
        {
          "internalType": "bool",
          "name": "",
          "type": "bool"
        }
      ],
      "stateMutability": "nonpayable",
      "type": "function"
    },
    {
      "inputs": [
        {
          "internalType": "address",
          "name": "account",
          "type": "address"
        }
      ],
      "name": "balanceOf",
      "outputs": [
        {
          "internalType": "uint256",
          "name": "",
          "type": "uint256"
        }
      ],
      "stateMutability": "view",
      "type": "function"
    },
    {
      "inputs": [],
      "name": "decimals",
      "outputs": [
        {
          "internalType": "uint8",
          "name": "",
          "type": "uint8"
        }
      ],
      "stateMutability": "view",
      "type": "function"
    },
    {
      "inputs": [
        {
          "internalType": "address",
          "name": "spender",
          "type": "address"
        },
        {
          "internalType": "uint256",
          "name": "subtractedValue",
          "type": "uint256"
        }
      ],
      "name": "decreaseAllowance",
      "outputs": [
        {
          "internalType": "bool",
          "name": "",
          "type": "bool"
        }
      ],
      "stateMutability": "nonpayable",
      "type": "function"
    },
    {
      "inputs": [],
      "name": "failVoteNum",
      "outputs": [
        {
          "internalType": "uint8",
          "name": "",
          "type": "uint8"
        }
      ],
      "stateMutability": "view",
      "type": "function"
    },
    {
      "inputs": [
        {
          "internalType": "address",
          "name": "spender",
          "type": "address"
        },
        {
          "internalType": "uint256",
          "name": "addedValue",
          "type": "uint256"
        }
      ],
      "name": "increaseAllowance",
      "outputs": [
        {
          "internalType": "bool",
          "name": "",
          "type": "bool"
        }
      ],
      "stateMutability": "nonpayable",
      "type": "function"
    },
    {
      "inputs": [
        {
          "internalType": "address",
          "name": "",
          "type": "address"
        },
        {
          "internalType": "uint256",
          "name": "",
          "type": "uint256"
        }
      ],
      "name": "is_voted",
      "outputs": [
        {
          "internalType": "bool",
          "name": "",
          "type": "bool"
        }
      ],
      "stateMutability": "view",
      "type": "function"
    },
    {
      "inputs": [],
      "name": "name",
      "outputs": [
        {
          "internalType": "string",
          "name": "",
          "type": "string"
        }
      ],
      "stateMutability": "view",
      "type": "function"
    },
    {
      "inputs": [],
      "name": "owner",
      "outputs": [
        {
          "internalType": "address payable",
          "name": "",
          "type": "address"
        }
      ],
      "stateMutability": "view",
      "type": "function"
    },
    {
      "inputs": [],
      "name": "passVoteNum",
      "outputs": [
        {
          "internalType": "uint8",
          "name": "",
          "type": "uint8"
        }
      ],
      "stateMutability": "view",
      "type": "function"
    },
    {
      "inputs": [],
      "name": "symbol",
      "outputs": [
        {
          "internalType": "string",
          "name": "",
          "type": "string"
        }
      ],
      "stateMutability": "view",
      "type": "function"
    },
    {
      "inputs": [],
      "name": "totalSupply",
      "outputs": [
        {
          "internalType": "uint256",
          "name": "",
          "type": "uint256"
        }
      ],
      "stateMutability": "view",
      "type": "function"
    },
    {
      "inputs": [
        {
          "internalType": "address",
          "name": "recipient",
          "type": "address"
        },
        {
          "internalType": "uint256",
          "name": "amount",
          "type": "uint256"
        }
      ],
      "name": "transfer",
      "outputs": [
        {
          "internalType": "bool",
          "name": "",
          "type": "bool"
        }
      ],
      "stateMutability": "nonpayable",
      "type": "function"
    },
    {
      "inputs": [
        {
          "internalType": "address",
          "name": "sender",
          "type": "address"
        },
        {
          "internalType": "address",
          "name": "recipient",
          "type": "address"
        },
        {
          "internalType": "uint256",
          "name": "amount",
          "type": "uint256"
        }
      ],
      "name": "transferFrom",
      "outputs": [
        {
          "internalType": "bool",
          "name": "",
          "type": "bool"
        }
      ],
      "stateMutability": "nonpayable",
      "type": "function"
    },
    {
      "inputs": [
        {
          "internalType": "address payable",
          "name": "newOwner",
          "type": "address"
        }
      ],
      "name": "transferOwnership",
      "outputs": [],
      "stateMutability": "nonpayable",
      "type": "function"
    },
    {
      "inputs": [
        {
          "internalType": "uint256",
          "name": "",
          "type": "uint256"
        }
      ],
      "name": "votes_against",
      "outputs": [
        {
          "internalType": "uint256",
          "name": "voteNum",
          "type": "uint256"
        }
      ],
      "stateMutability": "view",
      "type": "function"
    },
    {
      "inputs": [
        {
          "internalType": "uint256",
          "name": "",
          "type": "uint256"
        }
      ],
      "name": "votes_agree",
      "outputs": [
        {
          "internalType": "uint256",
          "name": "voteNum",
          "type": "uint256"
        }
      ],
      "stateMutability": "view",
      "type": "function"
    },
    {
      "inputs": [
        {
          "internalType": "uint256",
          "name": "_id",
          "type": "uint256"
        }
      ],
      "name": "getCharity",
      "outputs": [
        {
          "internalType": "contract Charity",
          "name": "charity",
          "type": "address"
        }
      ],
      "stateMutability": "view",
      "type": "function"
    },
    {
      "inputs": [
        {
          "internalType": "uint256",
          "name": "_id",
          "type": "uint256"
        }
      ],
      "name": "getVoteStatus",
      "outputs": [
        {
          "internalType": "uint256",
          "name": "status",
          "type": "uint256"
        }
      ],
      "stateMutability": "view",
      "type": "function"
    },
    {
      "inputs": [
        {
          "internalType": "uint256",
          "name": "_id",
          "type": "uint256"
        }
      ],
      "name": "getVoteNextStatus",
      "outputs": [
        {
          "internalType": "uint256",
          "name": "status",
          "type": "uint256"
        }
      ],
      "stateMutability": "view",
      "type": "function"
    },
    {
      "inputs": [
        {
          "internalType": "uint256",
          "name": "_id",
          "type": "uint256"
        }
      ],
      "name": "agree",
      "outputs": [],
      "stateMutability": "nonpayable",
      "type": "function"
    },
    {
      "inputs": [
        {
          "internalType": "uint256",
          "name": "_id",
          "type": "uint256"
        }
      ],
      "name": "against",
      "outputs": [],
      "stateMutability": "nonpayable",
      "type": "function"
    },
    {
      "inputs": [
        {
          "internalType": "uint256",
          "name": "_num",
          "type": "uint256"
        }
      ],
      "name": "updatePassVoteNum",
      "outputs": [],
      "stateMutability": "nonpayable",
      "type": "function"
    },
    {
      "inputs": [
        {
          "internalType": "uint256",
          "name": "_num",
          "type": "uint256"
        }
      ],
      "name": "updateFailVoteNum",
      "outputs": [],
      "stateMutability": "nonpayable",
      "type": "function"
    },
    {
      "inputs": [
        {
          "internalType": "address",
          "name": "receiverAddress",
          "type": "address"
        }
      ],
      "name": "updateReceiver",
      "outputs": [],
      "stateMutability": "nonpayable",
      "type": "function"
    },
    {
      "inputs": [
        {
          "internalType": "uint256",
          "name": "_num",
          "type": "uint256"
        }
      ],
      "name": "addSupply",
      "outputs": [],
      "stateMutability": "nonpayable",
      "type": "function"
    },
    {
      "inputs": [
        {
          "internalType": "uint256",
          "name": "_id",
          "type": "uint256"
        }
      ],
      "name": "getVotesCount",
      "outputs": [
        {
          "internalType": "uint256",
          "name": "agreeNum",
          "type": "uint256"
        },
        {
          "internalType": "uint256",
          "name": "againstNum",
          "type": "uint256"
        }
      ],
      "stateMutability": "view",
      "type": "function"
    },
    {
      "inputs": [
        {
          "internalType": "uint256",
          "name": "_id",
          "type": "uint256"
        }
      ],
      "name": "getAllVoters",
      "outputs": [
        {
          "internalType": "address[]",
          "name": "agree_voters",
          "type": "address[]"
        },
        {
          "internalType": "address[]",
          "name": "against_voters",
          "type": "address[]"
        }
      ],
      "stateMutability": "view",
      "type": "function"
    },
    {
      "inputs": [],
      "name": "destroy",
      "outputs": [],
      "stateMutability": "nonpayable",
      "type": "function"
    }
  ],
  "bytecode": "0x60806040526002600960006101000a81548160ff021916908360ff1602179055506002600960016101000a81548160ff021916908360ff1602179055506000600960026101000a81548173ffffffffffffffffffffffffffffffffffffffff021916908373ffffffffffffffffffffffffffffffffffffffff1602179055503480156200008b57600080fd5b50604051620032b3380380620032b383398181016040526040811015620000b157600080fd5b8101908080519060200190929190805190602001909291905050506040518060400160405280600981526020017f566f7465546f6b656e00000000000000000000000000000000000000000000008152506040518060400160405280600481526020017f566f7465000000000000000000000000000000000000000000000000000000008152508160039080519060200190620001509291906200051c565b508060049080519060200190620001699291906200051c565b506012600560006101000a81548160ff021916908360ff160217905550505033600560016101000a81548173ffffffffffffffffffffffffffffffffffffffff021916908373ffffffffffffffffffffffffffffffffffffffff160217905550620001e533670de0b6b3a76400008402620002b060201b60201c565b33600960026101000a81548173ffffffffffffffffffffffffffffffffffffffff021916908373ffffffffffffffffffffffffffffffffffffffff16021790555080600a60006101000a81548173ffffffffffffffffffffffffffffffffffffffff021916908373ffffffffffffffffffffffffffffffffffffffff16021790555033600b60006101000a81548173ffffffffffffffffffffffffffffffffffffffff021916908373ffffffffffffffffffffffffffffffffffffffff1602179055505050620005cb565b600073ffffffffffffffffffffffffffffffffffffffff168273ffffffffffffffffffffffffffffffffffffffff16141562000354576040517f08c379a000000000000000000000000000000000000000000000000000000000815260040180806020018281038252601f8152602001807f45524332303a206d696e7420746f20746865207a65726f20616464726573730081525060200191505060405180910390fd5b62000368600083836200048e60201b60201c565b62000384816002546200049360201b620023d31790919060201c565b600281905550620003e2816000808573ffffffffffffffffffffffffffffffffffffffff1673ffffffffffffffffffffffffffffffffffffffff168152602001908152602001600020546200049360201b620023d31790919060201c565b6000808473ffffffffffffffffffffffffffffffffffffffff1673ffffffffffffffffffffffffffffffffffffffff168152602001908152602001600020819055508173ffffffffffffffffffffffffffffffffffffffff16600073ffffffffffffffffffffffffffffffffffffffff167fddf252ad1be2c89b69c2b068fc378daa952ba7f163c4a11628f55a4df523b3ef836040518082815260200191505060405180910390a35050565b505050565b60008082840190508381101562000512576040517f08c379a000000000000000000000000000000000000000000000000000000000815260040180806020018281038252601b8152602001807f536166654d6174683a206164646974696f6e206f766572666c6f77000000000081525060200191505060405180910390fd5b8091505092915050565b828054600181600116156101000203166002900490600052602060002090601f016020900481019282601f106200055f57805160ff191683800117855562000590565b8280016001018555821562000590579182015b828111156200058f57825182559160200191906001019062000572565b5b5090506200059f9190620005a3565b5090565b620005c891905b80821115620005c4576000816000905550600101620005aa565b5090565b90565b612cd880620005db6000396000f3fe608060405234801561001057600080fd5b50600436106101e55760003560e01c806376b338ce1161010f578063bff3375e116100a2578063f2fde38b11610071578063f2fde38b14610a3a578063f606841e14610a7e578063f851a44014610aac578063fd67db8114610af6576101e5565b8063bff3375e1461086d578063dd62ed3e14610938578063eace876e146109b0578063eb5ed8f014610a16576101e5565b806395d89b41116100de57806395d89b41146106dc578063a457c2d71461075f578063a9059cbb146107c5578063b245bde91461082b576101e5565b806376b338ce146106165780637ba2196a1461064457806383197ef0146106885780638da5cb5b14610692576101e5565b8063313ce567116101875780634e873a3b116101565780634e873a3b1461050c5780636cacda8e1461053a5780636de66cf71461057c57806370a08231146105be576101e5565b8063313ce56714610430578063395093511461045457806340753a76146104ba5780634ccdee1e146104e8576101e5565b806318160ddd116101c357806318160ddd146103155780631937c261146103335780632390aa011461037c57806323b872dd146103aa576101e5565b80630519bb83146101ea57806306fdde031461022c578063095ea7b3146102af575b600080fd5b6102166004803603602081101561020057600080fd5b8101908080359060200190929190505050610b64565b6040518082815260200191505060405180910390f35b610234610bfb565b6040518080602001828103825283818151815260200191508051906020019080838360005b83811015610274578082015181840152602081019050610259565b50505050905090810190601f1680156102a15780820380516001836020036101000a031916815260200191505b509250505060405180910390f35b6102fb600480360360408110156102c557600080fd5b81019080803573ffffffffffffffffffffffffffffffffffffffff16906020019092919080359060200190929190505050610c9d565b604051808215151515815260200191505060405180910390f35b61031d610cbb565b6040518082815260200191505060405180910390f35b61035f6004803603602081101561034957600080fd5b8101908080359060200190929190505050610cc5565b604051808381526020018281526020019250505060405180910390f35b6103a86004803603602081101561039257600080fd5b8101908080359060200190929190505050610cff565b005b610416600480360360608110156103c057600080fd5b81019080803573ffffffffffffffffffffffffffffffffffffffff169060200190929190803573ffffffffffffffffffffffffffffffffffffffff16906020019092919080359060200190929190505050611144565b604051808215151515815260200191505060405180910390f35b61043861121d565b604051808260ff1660ff16815260200191505060405180910390f35b6104a06004803603604081101561046a57600080fd5b81019080803573ffffffffffffffffffffffffffffffffffffffff16906020019092919080359060200190929190505050611234565b604051808215151515815260200191505060405180910390f35b6104e6600480360360208110156104d057600080fd5b81019080803590602001909291905050506112e7565b005b6104f06113c1565b604051808260ff1660ff16815260200191505060405180910390f35b6105386004803603602081101561052257600080fd5b81019080803590602001909291905050506113d4565b005b6105666004803603602081101561055057600080fd5b81019080803590602001909291905050506114b5565b6040518082815260200191505060405180910390f35b6105a86004803603602081101561059257600080fd5b81019080803590602001909291905050506114d3565b6040518082815260200191505060405180910390f35b610600600480360360208110156105d457600080fd5b81019080803573ffffffffffffffffffffffffffffffffffffffff1690602001909291905050506114f1565b6040518082815260200191505060405180910390f35b6106426004803603602081101561062c57600080fd5b8101908080359060200190929190505050611539565b005b6106866004803603602081101561065a57600080fd5b81019080803573ffffffffffffffffffffffffffffffffffffffff16906020019092919050505061161a565b005b610690611721565b005b61069a6117fd565b604051808273ffffffffffffffffffffffffffffffffffffffff1673ffffffffffffffffffffffffffffffffffffffff16815260200191505060405180910390f35b6106e4611823565b6040518080602001828103825283818151815260200191508051906020019080838360005b83811015610724578082015181840152602081019050610709565b50505050905090810190601f1680156107515780820380516001836020036101000a031916815260200191505b509250505060405180910390f35b6107ab6004803603604081101561077557600080fd5b81019080803573ffffffffffffffffffffffffffffffffffffffff169060200190929190803590602001909291905050506118c5565b604051808215151515815260200191505060405180910390f35b610811600480360360408110156107db57600080fd5b81019080803573ffffffffffffffffffffffffffffffffffffffff16906020019092919080359060200190929190505050611992565b604051808215151515815260200191505060405180910390f35b6108576004803603602081101561084157600080fd5b81019080803590602001909291905050506119b0565b6040518082815260200191505060405180910390f35b6108996004803603602081101561088357600080fd5b8101908080359060200190929190505050611a7b565b604051808060200180602001838103835285818151815260200191508051906020019060200280838360005b838110156108e05780820151818401526020810190506108c5565b50505050905001838103825284818151815260200191508051906020019060200280838360005b83811015610922578082015181840152602081019050610907565b5050505090500194505050505060405180910390f35b61099a6004803603604081101561094e57600080fd5b81019080803573ffffffffffffffffffffffffffffffffffffffff169060200190929190803573ffffffffffffffffffffffffffffffffffffffff169060200190929190505050611bbd565b6040518082815260200191505060405180910390f35b6109fc600480360360408110156109c657600080fd5b81019080803573ffffffffffffffffffffffffffffffffffffffff16906020019092919080359060200190929190505050611c44565b604051808215151515815260200191505060405180910390f35b610a1e611c73565b604051808260ff1660ff16815260200191505060405180910390f35b610a7c60048036036020811015610a5057600080fd5b81019080803573ffffffffffffffffffffffffffffffffffffffff169060200190929190505050611c86565b005b610aaa60048036036020811015610a9457600080fd5b8101908080359060200190929190505050611eac565b005b610ab46122f1565b604051808273ffffffffffffffffffffffffffffffffffffffff1673ffffffffffffffffffffffffffffffffffffffff16815260200191505060405180910390f35b610b2260048036036020811015610b0c57600080fd5b8101908080359060200190929190505050612317565b604051808273ffffffffffffffffffffffffffffffffffffffff1673ffffffffffffffffffffffffffffffffffffffff16815260200191505060405180910390f35b600080610b7083612317565b90508073ffffffffffffffffffffffffffffffffffffffff16634e69d5606040518163ffffffff1660e01b815260040160206040518083038186803b158015610bb857600080fd5b505afa158015610bcc573d6000803e3d6000fd5b505050506040513d6020811015610be257600080fd5b8101908080519060200190929190505050915050919050565b606060038054600181600116156101000203166002900480601f016020809104026020016040519081016040528092919081815260200182805460018160011615610100020316600290048015610c935780601f10610c6857610100808354040283529160200191610c93565b820191906000526020600020905b815481529060010190602001808311610c7657829003601f168201915b5050505050905090565b6000610cb1610caa61245b565b8484612463565b6001905092915050565b6000600254905090565b6000806006600084815260200190815260200160002060000154915060076000848152602001908152602001600020600001549050915091565b6000610d0a82610b64565b14610d7d576040517f08c379a000000000000000000000000000000000000000000000000000000000815260040180806020018281038252600b8152602001807f766f746520636c6f73656400000000000000000000000000000000000000000081525060200191505060405180910390fd5b60001515600860003373ffffffffffffffffffffffffffffffffffffffff1673ffffffffffffffffffffffffffffffffffffffff168152602001908152602001600020600083815260200190815260200160002060009054906101000a900460ff16151514610e54576040517f08c379a00000000000000000000000000000000000000000000000000000000081526004018080602001828103825260158152602001807f596f7527766520616c726561647920766f74656421000000000000000000000081525060200191505060405180910390fd5b670de0b6b3a7640000610e66336114f1565b1015610eda576040517f08c379a000000000000000000000000000000000000000000000000000000000815260040180806020018281038252601d8152602001807f596f7520646f6e2774206861766520656e6f75676820746f6b656e732100000081525060200191505060405180910390fd5b610f0e600960029054906101000a900473ffffffffffffffffffffffffffffffffffffffff16670de0b6b3a7640000611992565b506001600860003373ffffffffffffffffffffffffffffffffffffffff1673ffffffffffffffffffffffffffffffffffffffff168152602001908152602001600020600083815260200190815260200160002060006101000a81548160ff02191690831515021790555060076000828152602001908152602001600020600101339080600181540180825580915050600190039060005260206000200160009091909190916101000a81548173ffffffffffffffffffffffffffffffffffffffff021916908373ffffffffffffffffffffffffffffffffffffffff16021790555060076000828152602001908152602001600020600001600081548092919060010191905055507f96ce7cbbde675ddb435b3e4b185613513eca190c76a819204ae2266d1b008f52813342604051808481526020018373ffffffffffffffffffffffffffffffffffffffff1673ffffffffffffffffffffffffffffffffffffffff168152602001828152602001935050505060405180910390a16009611093826119b0565b1415611141576110a281612317565b73ffffffffffffffffffffffffffffffffffffffff1663ba414fa66040518163ffffffff1660e01b8152600401600060405180830381600087803b1580156110e957600080fd5b505af11580156110fd573d6000803e3d6000fd5b505050507f58fdc218b35bb4353ddf17a1c84929e67b9be2b352e584e2d92a7fac11678cf38142604051808381526020018281526020019250505060405180910390a15b50565b600061115184848461265a565b6112128461115d61245b565b61120d85604051806060016040528060288152602001612c0d60289139600160008b73ffffffffffffffffffffffffffffffffffffffff1673ffffffffffffffffffffffffffffffffffffffff16815260200190815260200160002060006111c361245b565b73ffffffffffffffffffffffffffffffffffffffff1673ffffffffffffffffffffffffffffffffffffffff1681526020019081526020016000205461291b9092919063ffffffff16565b612463565b600190509392505050565b6000600560009054906101000a900460ff16905090565b60006112dd61124161245b565b846112d8856001600061125261245b565b73ffffffffffffffffffffffffffffffffffffffff1673ffffffffffffffffffffffffffffffffffffffff16815260200190815260200160002060008973ffffffffffffffffffffffffffffffffffffffff1673ffffffffffffffffffffffffffffffffffffffff168152602001908152602001600020546123d390919063ffffffff16565b612463565b6001905092915050565b600560019054906101000a900473ffffffffffffffffffffffffffffffffffffffff1673ffffffffffffffffffffffffffffffffffffffff163373ffffffffffffffffffffffffffffffffffffffff16146113aa576040517f08c379a00000000000000000000000000000000000000000000000000000000081526004018080602001828103825260138152602001807f4d75737420636f6e7472616374206f776e65720000000000000000000000000081525060200191505060405180910390fd5b6113be33670de0b6b3a764000083026129d5565b50565b600960019054906101000a900460ff1681565b600560019054906101000a900473ffffffffffffffffffffffffffffffffffffffff1673ffffffffffffffffffffffffffffffffffffffff163373ffffffffffffffffffffffffffffffffffffffff1614611497576040517f08c379a00000000000000000000000000000000000000000000000000000000081526004018080602001828103825260138152602001807f4d75737420636f6e7472616374206f776e65720000000000000000000000000081525060200191505060405180910390fd5b80600960006101000a81548160ff021916908360ff16021790555050565b60066020528060005260406000206000915090508060000154905081565b60076020528060005260406000206000915090508060000154905081565b60008060008373ffffffffffffffffffffffffffffffffffffffff1673ffffffffffffffffffffffffffffffffffffffff168152602001908152602001600020549050919050565b600560019054906101000a900473ffffffffffffffffffffffffffffffffffffffff1673ffffffffffffffffffffffffffffffffffffffff163373ffffffffffffffffffffffffffffffffffffffff16146115fc576040517f08c379a00000000000000000000000000000000000000000000000000000000081526004018080602001828103825260138152602001807f4d75737420636f6e7472616374206f776e65720000000000000000000000000081525060200191505060405180910390fd5b80600960016101000a81548160ff021916908360ff16021790555050565b600560019054906101000a900473ffffffffffffffffffffffffffffffffffffffff1673ffffffffffffffffffffffffffffffffffffffff163373ffffffffffffffffffffffffffffffffffffffff16146116dd576040517f08c379a00000000000000000000000000000000000000000000000000000000081526004018080602001828103825260138152602001807f4d75737420636f6e7472616374206f776e65720000000000000000000000000081525060200191505060405180910390fd5b80600960026101000a81548173ffffffffffffffffffffffffffffffffffffffff021916908373ffffffffffffffffffffffffffffffffffffffff16021790555050565b3373ffffffffffffffffffffffffffffffffffffffff16600b60009054906101000a900473ffffffffffffffffffffffffffffffffffffffff1673ffffffffffffffffffffffffffffffffffffffff16146117e4576040517f08c379a000000000000000000000000000000000000000000000000000000000815260040180806020018281038252600a8152602001807f6e6f74207065726d69740000000000000000000000000000000000000000000081525060200191505060405180910390fd5b3373ffffffffffffffffffffffffffffffffffffffff16ff5b600560019054906101000a900473ffffffffffffffffffffffffffffffffffffffff1681565b606060048054600181600116156101000203166002900480601f0160208091040260200160405190810160405280929190818152602001828054600181600116156101000203166002900480156118bb5780601f10611890576101008083540402835291602001916118bb565b820191906000526020600020905b81548152906001019060200180831161189e57829003601f168201915b5050505050905090565b60006119886118d261245b565b8461198385604051806060016040528060258152602001612c7e60259139600160006118fc61245b565b73ffffffffffffffffffffffffffffffffffffffff1673ffffffffffffffffffffffffffffffffffffffff16815260200190815260200160002060008a73ffffffffffffffffffffffffffffffffffffffff1673ffffffffffffffffffffffffffffffffffffffff1681526020019081526020016000205461291b9092919063ffffffff16565b612463565b6001905092915050565b60006119a661199f61245b565b848461265a565b6001905092915050565b60006119bb82610b64565b9050600081146119cd57809050611a76565b600960009054906101000a900460ff1660ff166006600084815260200190815260200160002060000154108015611a2b5750600960019054906101000a900460ff1660ff166007600084815260200190815260200160002060000154105b15611a395760009050611a76565b600960009054906101000a900460ff1660ff16600660008481526020019081526020016000206000015410611a715760019050611a76565b600990505b919050565b60608060066000848152602001908152602001600020600101805480602002602001604051908101604052809291908181526020018280548015611b1457602002820191906000526020600020905b8160009054906101000a900473ffffffffffffffffffffffffffffffffffffffff1673ffffffffffffffffffffffffffffffffffffffff1681526020019060010190808311611aca575b5050505050915060076000848152602001908152602001600020600101805480602002602001604051908101604052809291908181526020018280548015611bb157602002820191906000526020600020905b8160009054906101000a900473ffffffffffffffffffffffffffffffffffffffff1673ffffffffffffffffffffffffffffffffffffffff1681526020019060010190808311611b67575b50505050509050915091565b6000600160008473ffffffffffffffffffffffffffffffffffffffff1673ffffffffffffffffffffffffffffffffffffffff16815260200190815260200160002060008373ffffffffffffffffffffffffffffffffffffffff1673ffffffffffffffffffffffffffffffffffffffff16815260200190815260200160002054905092915050565b60086020528160005260406000206020528060005260406000206000915091509054906101000a900460ff1681565b600960009054906101000a900460ff1681565b600560019054906101000a900473ffffffffffffffffffffffffffffffffffffffff1673ffffffffffffffffffffffffffffffffffffffff163373ffffffffffffffffffffffffffffffffffffffff1614611d49576040517f08c379a00000000000000000000000000000000000000000000000000000000081526004018080602001828103825260138152602001807f4d75737420636f6e7472616374206f776e65720000000000000000000000000081525060200191505060405180910390fd5b600073ffffffffffffffffffffffffffffffffffffffff168173ffffffffffffffffffffffffffffffffffffffff161415611dec576040517f08c379a00000000000000000000000000000000000000000000000000000000081526004018080602001828103825260138152602001807f4d75737420636f6e7472616374206f776e65720000000000000000000000000081525060200191505060405180910390fd5b8073ffffffffffffffffffffffffffffffffffffffff16600560019054906101000a900473ffffffffffffffffffffffffffffffffffffffff1673ffffffffffffffffffffffffffffffffffffffff167f8be0079c531659141344cd1fd0a4f28419497f9722a3daafe3b4186f6b6457e060405160405180910390a380600560016101000a81548173ffffffffffffffffffffffffffffffffffffffff021916908373ffffffffffffffffffffffffffffffffffffffff16021790555050565b6000611eb782610b64565b14611f2a576040517f08c379a000000000000000000000000000000000000000000000000000000000815260040180806020018281038252600b8152602001807f766f746520636c6f73656400000000000000000000000000000000000000000081525060200191505060405180910390fd5b60001515600860003373ffffffffffffffffffffffffffffffffffffffff1673ffffffffffffffffffffffffffffffffffffffff168152602001908152602001600020600083815260200190815260200160002060009054906101000a900460ff16151514612001576040517f08c379a00000000000000000000000000000000000000000000000000000000081526004018080602001828103825260158152602001807f596f7527766520616c726561647920766f74656421000000000000000000000081525060200191505060405180910390fd5b670de0b6b3a7640000612013336114f1565b1015612087576040517f08c379a000000000000000000000000000000000000000000000000000000000815260040180806020018281038252601d8152602001807f596f7520646f6e2774206861766520656e6f75676820746f6b656e732100000081525060200191505060405180910390fd5b6120bb600960029054906101000a900473ffffffffffffffffffffffffffffffffffffffff16670de0b6b3a7640000611992565b506001600860003373ffffffffffffffffffffffffffffffffffffffff1673ffffffffffffffffffffffffffffffffffffffff168152602001908152602001600020600083815260200190815260200160002060006101000a81548160ff02191690831515021790555060066000828152602001908152602001600020600101339080600181540180825580915050600190039060005260206000200160009091909190916101000a81548173ffffffffffffffffffffffffffffffffffffffff021916908373ffffffffffffffffffffffffffffffffffffffff16021790555060066000828152602001908152602001600020600001600081548092919060010191905055507ff2e6c2d86fcc2ff73b469d99a5a5f4b19f1145880ab0eea1e27da636c8297de6813342604051808481526020018373ffffffffffffffffffffffffffffffffffffffff1673ffffffffffffffffffffffffffffffffffffffff168152602001828152602001935050505060405180910390a16001612240826119b0565b14156122ee5761224f81612317565b73ffffffffffffffffffffffffffffffffffffffff1663a2e620456040518163ffffffff1660e01b8152600401600060405180830381600087803b15801561229657600080fd5b505af11580156122aa573d6000803e3d6000fd5b505050507f2ac81d7a96ca92c824dd6e8ecfd8484fb4c0515d4c6ae4f21711f687c89bb1bc8142604051808381526020018281526020019250505060405180910390a15b50565b600b60009054906101000a900473ffffffffffffffffffffffffffffffffffffffff1681565b600080600a60009054906101000a900473ffffffffffffffffffffffffffffffffffffffff1673ffffffffffffffffffffffffffffffffffffffff1663fb709d2e846040518263ffffffff1660e01b81526004018082815260200191505060206040518083038186803b15801561238d57600080fd5b505afa1580156123a1573d6000803e3d6000fd5b505050506040513d60208110156123b757600080fd5b8101908080519060200190929190505050905080915050919050565b600080828401905083811015612451576040517f08c379a000000000000000000000000000000000000000000000000000000000815260040180806020018281038252601b8152602001807f536166654d6174683a206164646974696f6e206f766572666c6f77000000000081525060200191505060405180910390fd5b8091505092915050565b600033905090565b600073ffffffffffffffffffffffffffffffffffffffff168373ffffffffffffffffffffffffffffffffffffffff1614156124e9576040517f08c379a0000000000000000000000000000000000000000000000000000000008152600401808060200182810382526024815260200180612c5a6024913960400191505060405180910390fd5b600073ffffffffffffffffffffffffffffffffffffffff168273ffffffffffffffffffffffffffffffffffffffff16141561256f576040517f08c379a0000000000000000000000000000000000000000000000000000000008152600401808060200182810382526022815260200180612bc56022913960400191505060405180910390fd5b80600160008573ffffffffffffffffffffffffffffffffffffffff1673ffffffffffffffffffffffffffffffffffffffff16815260200190815260200160002060008473ffffffffffffffffffffffffffffffffffffffff1673ffffffffffffffffffffffffffffffffffffffff168152602001908152602001600020819055508173ffffffffffffffffffffffffffffffffffffffff168373ffffffffffffffffffffffffffffffffffffffff167f8c5be1e5ebec7d5bd14f71427d1e84f3dd0314c0f7b2291e5b200ac8c7c3b925836040518082815260200191505060405180910390a3505050565b600073ffffffffffffffffffffffffffffffffffffffff168373ffffffffffffffffffffffffffffffffffffffff1614156126e0576040517f08c379a0000000000000000000000000000000000000000000000000000000008152600401808060200182810382526025815260200180612c356025913960400191505060405180910390fd5b600073ffffffffffffffffffffffffffffffffffffffff168273ffffffffffffffffffffffffffffffffffffffff161415612766576040517f08c379a0000000000000000000000000000000000000000000000000000000008152600401808060200182810382526023815260200180612ba26023913960400191505060405180910390fd5b612771838383612b9c565b6127dc81604051806060016040528060268152602001612be7602691396000808773ffffffffffffffffffffffffffffffffffffffff1673ffffffffffffffffffffffffffffffffffffffff1681526020019081526020016000205461291b9092919063ffffffff16565b6000808573ffffffffffffffffffffffffffffffffffffffff1673ffffffffffffffffffffffffffffffffffffffff1681526020019081526020016000208190555061286f816000808573ffffffffffffffffffffffffffffffffffffffff1673ffffffffffffffffffffffffffffffffffffffff168152602001908152602001600020546123d390919063ffffffff16565b6000808473ffffffffffffffffffffffffffffffffffffffff1673ffffffffffffffffffffffffffffffffffffffff168152602001908152602001600020819055508173ffffffffffffffffffffffffffffffffffffffff168373ffffffffffffffffffffffffffffffffffffffff167fddf252ad1be2c89b69c2b068fc378daa952ba7f163c4a11628f55a4df523b3ef836040518082815260200191505060405180910390a3505050565b60008383111582906129c8576040517f08c379a00000000000000000000000000000000000000000000000000000000081526004018080602001828103825283818151815260200191508051906020019080838360005b8381101561298d578082015181840152602081019050612972565b50505050905090810190601f1680156129ba5780820380516001836020036101000a031916815260200191505b509250505060405180910390fd5b5082840390509392505050565b600073ffffffffffffffffffffffffffffffffffffffff168273ffffffffffffffffffffffffffffffffffffffff161415612a78576040517f08c379a000000000000000000000000000000000000000000000000000000000815260040180806020018281038252601f8152602001807f45524332303a206d696e7420746f20746865207a65726f20616464726573730081525060200191505060405180910390fd5b612a8460008383612b9c565b612a99816002546123d390919063ffffffff16565b600281905550612af0816000808573ffffffffffffffffffffffffffffffffffffffff1673ffffffffffffffffffffffffffffffffffffffff168152602001908152602001600020546123d390919063ffffffff16565b6000808473ffffffffffffffffffffffffffffffffffffffff1673ffffffffffffffffffffffffffffffffffffffff168152602001908152602001600020819055508173ffffffffffffffffffffffffffffffffffffffff16600073ffffffffffffffffffffffffffffffffffffffff167fddf252ad1be2c89b69c2b068fc378daa952ba7f163c4a11628f55a4df523b3ef836040518082815260200191505060405180910390a35050565b50505056fe45524332303a207472616e7366657220746f20746865207a65726f206164647265737345524332303a20617070726f766520746f20746865207a65726f206164647265737345524332303a207472616e7366657220616d6f756e7420657863656564732062616c616e636545524332303a207472616e7366657220616d6f756e74206578636565647320616c6c6f77616e636545524332303a207472616e736665722066726f6d20746865207a65726f206164647265737345524332303a20617070726f76652066726f6d20746865207a65726f206164647265737345524332303a2064656372656173656420616c6c6f77616e63652062656c6f77207a65726fa26469706673582212200f530d7d2cd0c838032c3b994e6d8badb0b22f8d5299c8f29de80657bf1f1b0164736f6c634300060b0033",
  "immutableReferences": {},
  "source": "// contracts/VoteToken.sol\r\n// SPDX-License-Identifier: MIT\r\npragma solidity ^0.6.0;\r\n\r\nimport \"@openzeppelin/contracts/token/ERC20/ERC20.sol\";\r\n//import \"@openzeppelin/contracts/token/ERC20/ERC20Detailed.sol\";\r\nimport \"./interfaces/CharityFactory.sol\";\r\nimport \"./interfaces/Charity.sol\";\r\nimport \"./lib/Ownable.sol\";\r\n\r\ncontract VoteToken is ERC20 , Ownable{\r\n\r\n  struct voteInfo{\r\n    uint voteNum; //\r\n    address[] voters; //\r\n  }\r\n  mapping(uint => voteInfo) public votes_agree; //\r\n  mapping(uint => voteInfo) public votes_against; //\r\n  mapping(address => mapping(uint => bool)) public is_voted; //\r\n  uint8 public passVoteNum = 2; //\r\n  uint8 public failVoteNum = 2; //\r\n  address receiver = address(0); //vote\r\n  CharityFactory charityFactory; \r\n  address public admin; \r\n\r\n  event addAgree(uint _id,address sender,uint voteTime); //\r\n  event addAgainst(uint _id,address sender,uint voteTime); //\r\n  event voteThrough(uint _id,uint voteTime); //\r\n  event voteNotThrough(uint _id,uint voteTime); //\r\n\r\n  constructor(uint256 initialSupply,address charityFactoryAddress) public ERC20(\"VoteToken\", \"Vote\") {\r\n    _mint(msg.sender, initialSupply * 1 ether);\r\n    //_setupDecimals(1);\r\n    receiver=msg.sender;\r\n    charityFactory = CharityFactory(charityFactoryAddress);\r\n    admin = msg.sender;\r\n  }\r\n\r\n  function getCharity(uint _id) public view returns(Charity charity) {\r\n    address charityAddress = charityFactory.charities(_id);\r\n    charity = Charity(charityAddress);\r\n  }\r\n\r\n  //  0: 1 2 3 9\r\n  function getVoteStatus(uint _id) public view returns(uint status) {\r\n    Charity charity = getCharity(_id);\r\n    status = charity.getStatus();\r\n  }\r\n\r\n  // \r\n  function getVoteNextStatus(uint _id) public view returns(uint status) {\r\n    status = getVoteStatus(_id);\r\n    if(status!=0){\r\n      return status;\r\n    }else{\r\n      //\r\n      if(\r\n        votes_agree[_id].voteNum<passVoteNum &&\r\n        votes_against[_id].voteNum<failVoteNum\r\n      ){ \r\n        //\r\n        return 0;\r\n      }else if(votes_agree[_id].voteNum>=passVoteNum){\r\n        // \r\n        return 1;\r\n      }\r\n      // \r\n      return 9;\r\n    }\r\n  }\r\n\r\n  // \r\n  function agree(uint _id) public{\r\n    require(getVoteStatus(_id)==0,\"vote closed\");\r\n    require(is_voted[msg.sender][_id]==false,\"You've already voted!\");\r\n    require(balanceOf(msg.sender)>=1 ether,\"You don't have enough tokens!\");\r\n    \r\n    transfer(receiver, 1 ether);\r\n    is_voted[msg.sender][_id]=true;\r\n    votes_agree[_id].voters.push(msg.sender);\r\n    votes_agree[_id].voteNum++;\r\n    \r\n    emit addAgree(_id,msg.sender,now);\r\n    if(getVoteNextStatus(_id)==1){\r\n      getCharity(_id).update();\r\n      emit voteThrough(_id,now);\r\n    }\r\n  }\r\n  \r\n  // \r\n  function against(uint _id) public{\r\n    require(getVoteStatus(_id)==0,\"vote closed\");\r\n    require(is_voted[msg.sender][_id]==false,\"You've already voted!\");\r\n    require(balanceOf(msg.sender)>=1 ether,\"You don't have enough tokens!\");\r\n\r\n    transfer(receiver, 1 ether);\r\n    is_voted[msg.sender][_id]=true;\r\n    votes_against[_id].voters.push(msg.sender);\r\n    votes_against[_id].voteNum++;\r\n\r\n    emit addAgainst(_id,msg.sender,now);\r\n    if(getVoteNextStatus(_id)==9){\r\n      getCharity(_id).failed();\r\n      emit voteNotThrough(_id,now);\r\n    }\r\n  }\r\n\r\n  function updatePassVoteNum(uint _num) public onlyOwner {\r\n    passVoteNum = uint8(_num);\r\n  }\r\n\r\n  function updateFailVoteNum(uint _num) public onlyOwner {\r\n    failVoteNum = uint8(_num);\r\n  }\r\n\r\n  function updateReceiver(address receiverAddress) public onlyOwner {\r\n    receiver = receiverAddress;\r\n  }\r\n\r\n  function addSupply(uint _num) public onlyOwner {\r\n    _mint(msg.sender,_num * 1 ether);\r\n  }\r\n\r\n  // \r\n  function getVotesCount(uint _id) public view returns(uint agreeNum ,uint againstNum){\r\n    agreeNum=votes_agree[_id].voteNum;\r\n    againstNum=votes_against[_id].voteNum;\r\n  }\r\n\r\n  // \r\n  function getAllVoters(uint _id) public view returns(address[] memory agree_voters,address[] memory against_voters){\r\n    agree_voters=votes_agree[_id].voters;\r\n    against_voters=votes_against[_id].voters;\r\n  }\r\n  \r\n  //\r\n  function destroy() public{      \r\n    require(admin == msg.sender,\"not permit\");\r\n    selfdestruct(msg.sender);\r\n  }\r\n}",
  "sourcePath": "/f/BlockChain/Vote/contracts/VoteToken.sol",
  "compiler": {
    "name": "solc",
    "version": "0.6.11+commit.5ef660b1.Linux.g++"
  },
  "schemaVersion": "3.2.0",
  "updatedAt": "2021-04-17T06:54:54.489Z",
  "devdoc": {
    "kind": "dev",
    "methods": {
      "allowance(address,address)": {
        "details": "See {IERC20-allowance}."
      },
      "approve(address,uint256)": {
        "details": "See {IERC20-approve}. Requirements: - `spender` cannot be the zero address."
      },
      "balanceOf(address)": {
        "details": "See {IERC20-balanceOf}."
      },
      "decimals()": {
        "details": "Returns the number of decimals used to get its user representation. For example, if `decimals` equals `2`, a balance of `505` tokens should be displayed to a user as `5,05` (`505 / 10 ** 2`). Tokens usually opt for a value of 18, imitating the relationship between Ether and Wei. This is the value {ERC20} uses, unless {_setupDecimals} is called. NOTE: This information is only used for _display_ purposes: it in no way affects any of the arithmetic of the contract, including {IERC20-balanceOf} and {IERC20-transfer}."
      },
      "decreaseAllowance(address,uint256)": {
        "details": "Atomically decreases the allowance granted to `spender` by the caller. This is an alternative to {approve} that can be used as a mitigation for problems described in {IERC20-approve}. Emits an {Approval} event indicating the updated allowance. Requirements: - `spender` cannot be the zero address. - `spender` must have allowance for the caller of at least `subtractedValue`."
      },
      "increaseAllowance(address,uint256)": {
        "details": "Atomically increases the allowance granted to `spender` by the caller. This is an alternative to {approve} that can be used as a mitigation for problems described in {IERC20-approve}. Emits an {Approval} event indicating the updated allowance. Requirements: - `spender` cannot be the zero address."
      },
      "name()": {
        "details": "Returns the name of the token."
      },
      "symbol()": {
        "details": "Returns the symbol of the token, usually a shorter version of the name."
      },
      "totalSupply()": {
        "details": "See {IERC20-totalSupply}."
      },
      "transfer(address,uint256)": {
        "details": "See {IERC20-transfer}. Requirements: - `recipient` cannot be the zero address. - the caller must have a balance of at least `amount`."
      },
      "transferFrom(address,address,uint256)": {
        "details": "See {IERC20-transferFrom}. Emits an {Approval} event indicating the updated allowance. This is not required by the EIP. See the note at the beginning of {ERC20}. Requirements: - `sender` and `recipient` cannot be the zero address. - `sender` must have a balance of at least `amount`. - the caller must have allowance for ``sender``'s tokens of at least `amount`."
      },
      "transferOwnership(address)": {
        "details": "Allows the current owner to transfer control of the contract to a newOwner.",
        "params": {
          "newOwner": "The address to transfer ownership to."
        }
      }
    },
    "version": 1
  },
  "userdoc": {
    "kind": "user",
    "methods": {},
    "version": 1
  }
}