{
  "contractName": "vote",
  "abi": [
    {
      "inputs": [
        {
          "internalType": "address",
          "name": "_voteCoinaddr",
          "type": "address"
        },
        {
          "internalType": "address",
          "name": "_voteReceiver",
          "type": "address"
        }
      ],
      "stateMutability": "nonpayable",
      "type": "constructor"
    },
    {
      "anonymous": false,
      "inputs": [
        {
          "indexed": false,
          "internalType": "uint256",
          "name": "_id",
          "type": "uint256"
        },
        {
          "indexed": false,
          "internalType": "address",
          "name": "sender",
          "type": "address"
        },
        {
          "indexed": false,
          "internalType": "uint256",
          "name": "voteTime",
          "type": "uint256"
        }
      ],
      "name": "addAgainst",
      "type": "event"
    },
    {
      "anonymous": false,
      "inputs": [
        {
          "indexed": false,
          "internalType": "uint256",
          "name": "_id",
          "type": "uint256"
        },
        {
          "indexed": false,
          "internalType": "address",
          "name": "sender",
          "type": "address"
        },
        {
          "indexed": false,
          "internalType": "uint256",
          "name": "voteTime",
          "type": "uint256"
        }
      ],
      "name": "addAggree",
      "type": "event"
    },
    {
      "anonymous": false,
      "inputs": [
        {
          "indexed": false,
          "internalType": "uint256",
          "name": "_id",
          "type": "uint256"
        },
        {
          "indexed": false,
          "internalType": "uint256",
          "name": "voteTime",
          "type": "uint256"
        }
      ],
      "name": "voteThrough",
      "type": "event"
    },
    {
      "inputs": [],
      "name": "coinNum",
      "outputs": [
        {
          "internalType": "uint256",
          "name": "",
          "type": "uint256"
        }
      ],
      "stateMutability": "view",
      "type": "function"
    },
    {
      "inputs": [
        {
          "internalType": "address",
          "name": "",
          "type": "address"
        },
        {
          "internalType": "uint256",
          "name": "",
          "type": "uint256"
        }
      ],
      "name": "is_voted",
      "outputs": [
        {
          "internalType": "bool",
          "name": "",
          "type": "bool"
        }
      ],
      "stateMutability": "view",
      "type": "function"
    },
    {
      "inputs": [],
      "name": "receiver",
      "outputs": [
        {
          "internalType": "address",
          "name": "",
          "type": "address"
        }
      ],
      "stateMutability": "view",
      "type": "function"
    },
    {
      "inputs": [],
      "name": "voteCoinToken",
      "outputs": [
        {
          "internalType": "contract voteCoin",
          "name": "",
          "type": "address"
        }
      ],
      "stateMutability": "view",
      "type": "function"
    },
    {
      "inputs": [],
      "name": "voteCoinaddr",
      "outputs": [
        {
          "internalType": "address",
          "name": "",
          "type": "address"
        }
      ],
      "stateMutability": "view",
      "type": "function"
    },
    {
      "inputs": [
        {
          "internalType": "uint256",
          "name": "",
          "type": "uint256"
        }
      ],
      "name": "votes_against",
      "outputs": [
        {
          "internalType": "uint256",
          "name": "voteNum",
          "type": "uint256"
        }
      ],
      "stateMutability": "view",
      "type": "function"
    },
    {
      "inputs": [
        {
          "internalType": "uint256",
          "name": "",
          "type": "uint256"
        }
      ],
      "name": "votes_aggree",
      "outputs": [
        {
          "internalType": "uint256",
          "name": "voteNum",
          "type": "uint256"
        }
      ],
      "stateMutability": "view",
      "type": "function"
    },
    {
      "inputs": [
        {
          "internalType": "uint256",
          "name": "_id",
          "type": "uint256"
        }
      ],
      "name": "agree",
      "outputs": [],
      "stateMutability": "nonpayable",
      "type": "function"
    },
    {
      "inputs": [
        {
          "internalType": "uint256",
          "name": "_id",
          "type": "uint256"
        }
      ],
      "name": "against",
      "outputs": [],
      "stateMutability": "nonpayable",
      "type": "function"
    },
    {
      "inputs": [
        {
          "internalType": "uint256",
          "name": "_id",
          "type": "uint256"
        }
      ],
      "name": "getVotes",
      "outputs": [
        {
          "internalType": "uint256",
          "name": "aggreeNum",
          "type": "uint256"
        },
        {
          "internalType": "uint256",
          "name": "againstNum",
          "type": "uint256"
        }
      ],
      "stateMutability": "view",
      "type": "function"
    },
    {
      "inputs": [
        {
          "internalType": "uint256",
          "name": "_id",
          "type": "uint256"
        }
      ],
      "name": "getVoters",
      "outputs": [
        {
          "internalType": "address[]",
          "name": "aggree_voters",
          "type": "address[]"
        },
        {
          "internalType": "address[]",
          "name": "against_voters",
          "type": "address[]"
        }
      ],
      "stateMutability": "view",
      "type": "function"
    }
  ],
  "bytecode": "0x6080604052600060065534801561001557600080fd5b506040516113733803806113738339818101604052604081101561003857600080fd5b81019080805190602001909291908051906020019092919050505081600360006101000a81548173ffffffffffffffffffffffffffffffffffffffff021916908373ffffffffffffffffffffffffffffffffffffffff16021790555081600560006101000a81548173ffffffffffffffffffffffffffffffffffffffff021916908373ffffffffffffffffffffffffffffffffffffffff16021790555080600460006101000a81548173ffffffffffffffffffffffffffffffffffffffff021916908373ffffffffffffffffffffffffffffffffffffffff160217905550505061124c806101276000396000f3fe608060405234801561001057600080fd5b50600436106100a95760003560e01c806386b646f21161007157806386b646f2146101b2578063e7ac51c61461027d578063eace876e146102b1578063f606841e14610315578063f7260d3e14610343578063ff98109914610377576100a9565b80632390aa01146100ae578063438c1013146100dc57806350530878146101105780636de66cf71461015257806375c0917214610194575b600080fd5b6100da600480360360208110156100c457600080fd5b81019080803590602001909291905050506103c0565b005b6100e4610962565b604051808273ffffffffffffffffffffffffffffffffffffffff16815260200191505060405180910390f35b61013c6004803603602081101561012657600080fd5b8101908080359060200190929190505050610988565b6040518082815260200191505060405180910390f35b61017e6004803603602081101561016857600080fd5b81019080803590602001909291905050506109a6565b6040518082815260200191505060405180910390f35b61019c6109c4565b6040518082815260200191505060405180910390f35b6101de600480360360208110156101c857600080fd5b81019080803590602001909291905050506109ca565b604051808060200180602001838103835285818151815260200191508051906020019060200280838360005b8381101561022557808201518184015260208101905061020a565b50505050905001838103825284818151815260200191508051906020019060200280838360005b8381101561026757808201518184015260208101905061024c565b5050505090500194505050505060405180910390f35b610285610b0b565b604051808273ffffffffffffffffffffffffffffffffffffffff16815260200191505060405180910390f35b6102fd600480360360408110156102c757600080fd5b81019080803573ffffffffffffffffffffffffffffffffffffffff16906020019092919080359060200190929190505050610b31565b60405180821515815260200191505060405180910390f35b6103416004803603602081101561032b57600080fd5b8101908080359060200190929190505050610b60565b005b61034b61114e565b604051808273ffffffffffffffffffffffffffffffffffffffff16815260200191505060405180910390f35b6103a36004803603602081101561038d57600080fd5b8101908080359060200190929190505050611174565b604051808381526020018281526020019250505060405180910390f35b60001515600260003373ffffffffffffffffffffffffffffffffffffffff1673ffffffffffffffffffffffffffffffffffffffff168152602001908152602001600020600083815260200190815260200160002060009054906101000a900460ff16151514610497576040517f08c379a00000000000000000000000000000000000000000000000000000000081526004018080602001828103825260158152602001807f596f7527766520616c726561647920766f74656421000000000000000000000081525060200191505060405180910390fd5b6001600560009054906101000a900473ffffffffffffffffffffffffffffffffffffffff1673ffffffffffffffffffffffffffffffffffffffff166370a08231336040518263ffffffff1660e01b8152600401808273ffffffffffffffffffffffffffffffffffffffff168152602001915050602060405180830381600087803b15801561052457600080fd5b505af1158015610538573d6000803e3d6000fd5b505050506040513d602081101561054e57600080fd5b810190808051906020019092919050505010156105d3576040517f08c379a000000000000000000000000000000000000000000000000000000000815260040180806020018281038252601d8152602001807f596f7520646f6e2774206861766520656e6f75676820746f6b656e732100000081525060200191505060405180910390fd5b6001600560009054906101000a900473ffffffffffffffffffffffffffffffffffffffff1673ffffffffffffffffffffffffffffffffffffffff1663dd62ed3e33306040518363ffffffff1660e01b8152600401808373ffffffffffffffffffffffffffffffffffffffff1681526020018273ffffffffffffffffffffffffffffffffffffffff16815260200192505050602060405180830381600087803b15801561067e57600080fd5b505af1158015610692573d6000803e3d6000fd5b505050506040513d60208110156106a857600080fd5b81019080805190602001909291905050501015610710576040517f08c379a000000000000000000000000000000000000000000000000000000000815260040180806020018281038252602e8152602001806111e9602e913960400191505060405180910390fd5b600560009054906101000a900473ffffffffffffffffffffffffffffffffffffffff1673ffffffffffffffffffffffffffffffffffffffff166323b872dd33600460009054906101000a900473ffffffffffffffffffffffffffffffffffffffff1660016040518463ffffffff1660e01b8152600401808473ffffffffffffffffffffffffffffffffffffffff1681526020018373ffffffffffffffffffffffffffffffffffffffff1681526020018281526020019350505050600060405180830381600087803b1580156107e457600080fd5b505af11580156107f8573d6000803e3d6000fd5b505050506001600260003373ffffffffffffffffffffffffffffffffffffffff1673ffffffffffffffffffffffffffffffffffffffff168152602001908152602001600020600083815260200190815260200160002060006101000a81548160ff02191690831515021790555060016000828152602001908152602001600020600101339080600181540180825580915050600190039060005260206000200160009091909190916101000a81548173ffffffffffffffffffffffffffffffffffffffff021916908373ffffffffffffffffffffffffffffffffffffffff16021790555060016000828152602001908152602001600020600001600081548092919060010191905055507f96ce7cbbde675ddb435b3e4b185613513eca190c76a819204ae2266d1b008f52813342604051808481526020018373ffffffffffffffffffffffffffffffffffffffff168152602001828152602001935050505060405180910390a150565b600560009054906101000a900473ffffffffffffffffffffffffffffffffffffffff1681565b60006020528060005260406000206000915090508060000154905081565b60016020528060005260406000206000915090508060000154905081565b60065481565b606080600080848152602001908152602001600020600101805480602002602001604051908101604052809291908181526020018280548015610a6257602002820191906000526020600020905b8160009054906101000a900473ffffffffffffffffffffffffffffffffffffffff1673ffffffffffffffffffffffffffffffffffffffff1681526020019060010190808311610a18575b5050505050915060016000848152602001908152602001600020600101805480602002602001604051908101604052809291908181526020018280548015610aff57602002820191906000526020600020905b8160009054906101000a900473ffffffffffffffffffffffffffffffffffffffff1673ffffffffffffffffffffffffffffffffffffffff1681526020019060010190808311610ab5575b50505050509050915091565b600360009054906101000a900473ffffffffffffffffffffffffffffffffffffffff1681565b60026020528160005260406000206020528060005260406000206000915091509054906101000a900460ff1681565b60001515600260003373ffffffffffffffffffffffffffffffffffffffff1673ffffffffffffffffffffffffffffffffffffffff168152602001908152602001600020600083815260200190815260200160002060009054906101000a900460ff16151514610c37576040517f08c379a00000000000000000000000000000000000000000000000000000000081526004018080602001828103825260158152602001807f596f7527766520616c726561647920766f74656421000000000000000000000081525060200191505060405180910390fd5b6001600560009054906101000a900473ffffffffffffffffffffffffffffffffffffffff1673ffffffffffffffffffffffffffffffffffffffff166370a08231336040518263ffffffff1660e01b8152600401808273ffffffffffffffffffffffffffffffffffffffff168152602001915050602060405180830381600087803b158015610cc457600080fd5b505af1158015610cd8573d6000803e3d6000fd5b505050506040513d6020811015610cee57600080fd5b81019080805190602001909291905050501015610d73576040517f08c379a000000000000000000000000000000000000000000000000000000000815260040180806020018281038252601d8152602001807f596f7520646f6e2774206861766520656e6f75676820746f6b656e732100000081525060200191505060405180910390fd5b6001600560009054906101000a900473ffffffffffffffffffffffffffffffffffffffff1673ffffffffffffffffffffffffffffffffffffffff1663dd62ed3e33306040518363ffffffff1660e01b8152600401808373ffffffffffffffffffffffffffffffffffffffff1681526020018273ffffffffffffffffffffffffffffffffffffffff16815260200192505050602060405180830381600087803b158015610e1e57600080fd5b505af1158015610e32573d6000803e3d6000fd5b505050506040513d6020811015610e4857600080fd5b81019080805190602001909291905050501015610eb0576040517f08c379a000000000000000000000000000000000000000000000000000000000815260040180806020018281038252602e8152602001806111e9602e913960400191505060405180910390fd5b600560009054906101000a900473ffffffffffffffffffffffffffffffffffffffff1673ffffffffffffffffffffffffffffffffffffffff166323b872dd33600460009054906101000a900473ffffffffffffffffffffffffffffffffffffffff1660016040518463ffffffff1660e01b8152600401808473ffffffffffffffffffffffffffffffffffffffff1681526020018373ffffffffffffffffffffffffffffffffffffffff1681526020018281526020019350505050600060405180830381600087803b158015610f8457600080fd5b505af1158015610f98573d6000803e3d6000fd5b505050506001600260003373ffffffffffffffffffffffffffffffffffffffff1673ffffffffffffffffffffffffffffffffffffffff168152602001908152602001600020600083815260200190815260200160002060006101000a81548160ff021916908315150217905550600080828152602001908152602001600020600101339080600181540180825580915050600190039060005260206000200160009091909190916101000a81548173ffffffffffffffffffffffffffffffffffffffff021916908373ffffffffffffffffffffffffffffffffffffffff160217905550600080828152602001908152602001600020600001600081548092919060010191905055507fc12c0272d1faa3e97a666ae12bdfc0799beb0f905d43b850dce4a0cd2cef09ac813342604051808481526020018373ffffffffffffffffffffffffffffffffffffffff168152602001828152602001935050505060405180910390a1611106816111ad565b1561114b577f2ac81d7a96ca92c824dd6e8ecfd8484fb4c0515d4c6ae4f21711f687c89bb1bc8142604051808381526020018281526020019250505060405180910390a15b50565b600460009054906101000a900473ffffffffffffffffffffffffffffffffffffffff1681565b60008060008084815260200190815260200160002060000154915060016000848152602001908152602001600020600001549050915091565b600080600290508060ff1660008085815260200190815260200160002060000154106111dd5760019150506111e3565b60009150505b91905056fe54686520616c6c6f77616e6365206f662074686520636f6e747261637420697320696e73756666696369656e7421a2646970667358221220085591a7c4a43c8c85b0ef5cca1922f270585e2971790a04aa32b11794df499364736f6c634300060c0033",
  "immutableReferences": {},
  "source": "// SPDX-License-Identifier: GPL-3.0\r\npragma solidity >=0.5.0 <0.7.0;\r\n\r\nimport \"./interfaces/voteCoin.sol\";\r\n\r\n\r\ncontract vote {\r\n  struct voteInfo{\r\n    uint voteNum;\r\n    address[] voters;\r\n  }\r\n  mapping(uint => voteInfo) public votes_aggree;\r\n  mapping(uint => voteInfo) public votes_against;\r\n  mapping(address => mapping(uint => bool)) public is_voted;\r\n\r\n  address public voteCoinaddr;\r\n  address public receiver;\r\n\r\n  event addAggree(uint _id,address sender,uint voteTime);\r\n  event addAgainst(uint _id,address sender,uint voteTime);\r\n  event voteThrough(uint _id,uint voteTime);\r\n\r\n\r\n  voteCoin public voteCoinToken;\r\n  uint public coinNum = 0;\r\n  //bbCoin bbCoin;\r\n\r\n  constructor(address _voteCoinaddr,address _voteReceiver) public {\r\n    voteCoinaddr = _voteCoinaddr;\r\n    voteCoinToken = voteCoin(_voteCoinaddr);\r\n    receiver=_voteReceiver;\r\n  }\r\n\r\n  function isVoteThrough(uint _id) private view returns(bool) {\r\n    uint8 baseLineNum = 2;\r\n    if(votes_aggree[_id].voteNum>=baseLineNum){\r\n      return true;\r\n    }\r\n    return false;\r\n  }\r\n\r\n  function agree(uint _id) public{\r\n    require(is_voted[msg.sender][_id]==false,\"You've already voted!\");\r\n    require(voteCoinToken.balanceOf(msg.sender)>=1,\"You don't have enough tokens!\");\r\n    require(voteCoinToken.allowance(msg.sender,address(this))>=1,\"The allowance of the contract is insufficient!\");\r\n\r\n    voteCoinToken.transferFrom(msg.sender,receiver,1);\r\n    is_voted[msg.sender][_id]=true;\r\n    votes_aggree[_id].voters.push(msg.sender);\r\n    votes_aggree[_id].voteNum++;\r\n\r\n    emit addAggree(_id,msg.sender,now);\r\n    if(isVoteThrough(_id)){\r\n      emit voteThrough(_id,now);\r\n    }\r\n  }\r\n  \r\n  function against(uint _id) public{\r\n    require(is_voted[msg.sender][_id]==false,\"You've already voted!\");\r\n    require(voteCoinToken.balanceOf(msg.sender)>=1,\"You don't have enough tokens!\");\r\n    require(voteCoinToken.allowance(msg.sender,address(this))>=1,\"The allowance of the contract is insufficient!\");\r\n\r\n    voteCoinToken.transferFrom(msg.sender,receiver,1);\r\n    is_voted[msg.sender][_id]=true;\r\n    votes_against[_id].voters.push(msg.sender);\r\n    votes_against[_id].voteNum++;\r\n\r\n    emit addAgainst(_id,msg.sender,now);\r\n  }\r\n\r\n  function getVotes(uint _id) public view returns(uint aggreeNum ,uint againstNum){\r\n    aggreeNum=votes_aggree[_id].voteNum;\r\n    againstNum=votes_against[_id].voteNum;\r\n  }\r\n\r\n  function getVoters(uint _id) public view returns(address[] memory aggree_voters,address[] memory against_voters ){\r\n    aggree_voters=votes_aggree[_id].voters;\r\n    against_voters=votes_against[_id].voters;\r\n  }\r\n}",
  "sourcePath": "/f/BlockChain/Vote_1/contracts/vote.sol",
  "compiler": {
    "name": "solc",
    "version": "0.6.12+commit.27d51765.Linux.g++"
  },
  "schemaVersion": "3.2.0",
  "updatedAt": "2021-03-23T14:50:06.368Z",
  "devdoc": {
    "kind": "dev",
    "methods": {},
    "version": 1
  },
  "userdoc": {
    "kind": "user",
    "methods": {},
    "version": 1
  }
}